:020000040800F2
:10000000000005209D3B0008373800083D380008F7
:1000100043380008493800084F3800080000000045
:10002000000000000000000000000000553800083B
:100030006338000800000000713800087F380008AD
:10004000ED3B00088B380008ED3B0008ED3B000855
:10005000ED3B0008ED3B0008ED3B0008ED3B0008E0
:10006000ED3B0008ED3B0008ED3B0008ED3B0008D0
:10007000ED3B0008ED3B0008ED3B0008ED3B0008C0
:10008000ED3B0008ED3B0008ED3B0008ED3B0008B0
:10009000ED3B0008ED3B0008ED3B0008ED3B0008A0
:1000A000ED3B0008ED3B0008ED3B0008ED3B000890
:1000B00099380008ED3B0008ED3B0008ED3B0008D7
:1000C000ED3B0008ED3B0008ED3B0008ED3B000870
:1000D000ED3B0008ED3B0008ED3B0008ED3B000860
:1000E000ED3B0008ED3B0008ED3B0008ED3B000850
:1000F000ED3B0008ED3B0008ED3B0008ED3B000840
:10010000ED3B0008ED3B0008ED3B0008ED3B00082F
:10011000ED3B0008ED3B0008ED3B0008ED3B00081F
:10012000ED3B0008ED3B0008ED3B0008ED3B00080F
:10013000ED3B0008ED3B0008ED3B0008ED3B0008FF
:10014000ED3B0008ED3B0008ED3B0008ED3B0008EF
:10015000ED3B0008ED3B0008ED3B0008ED3B0008DF
:10016000ED3B0008ED3B0008ED3B0008ED3B0008CF
:10017000ED3B0008ED3B0008ED3B000800000000EF
:10018000ED3B0008ED3B0008ED3B0008ED3B0008AF
:10019000ED3B0008ED3B0008ED3B0008ED3B00089F
:1001A000AD380008ED3B0008ED3B0008ED3B0008D2
:1001B000ED3B0008ED3B0008ED3B0008ED3B00087F
:0801C000ED3B0008ED3B0008D7
:1001D00010B5054C237833B9044B13B10448AFF381
:1001E00000800123237010BD1002002000000000D9
:1001F0005098000808B5034B1BB103490348AFF3FF
:10020000008008BD00000000140200205098000883
:10021000034613F8012B002AFBD1181A0138704746
:1002200001F0FF01102A2BDB10F0070F08D010F8A7
:10023000013B013A8B422DD010F0070F42B3F6D1AB
:10024000F0B441EA012141EA014122F007047FF0C4
:1002500000070023F0E80256083C85EA010586EA1B
:10026000010685FA47F5A3FA87F586FA47F6A5FA57
:1002700087F68EB9EED1F0BC01F0FF0102F0070263
:1002800032B110F8013B013A83EA010313B1F8D10E
:100290000020704701387047002D06BF35460338EF
:1002A000073815F0010F07D1013015F4807F02BF28
:1002B000013015F4C03F0130F0BC0138704700BF79
:1002C00081F0004102E000BF83F0004330B54FEA07
:1002D00041044FEA430594EA050F08BF90EA020F74
:1002E0001FBF54EA000C55EA020C7FEA645C7FEA07
:1002F000655C00F0E2804FEA5454D4EB5555B8BF2A
:100300006D420CDD2C4480EA020281EA030382EA9A
:10031000000083EA010180EA020281EA0303362D2C
:1003200088BF30BD11F0004F4FEA01314FF4801CFF
:100330004CEA113102D0404261EB410113F0004F11
:100340004FEA03334CEA133302D0524263EB4303C8
:1003500094EA050F00F0A780A4F10104D5F1200E66
:100360000DDB02FA0EFC22FA05F2801841F10001C1
:1003700003FA0EF2801843FA05F359410EE0A5F195
:1003800020050EF1200E012A03FA0EFC28BF4CF0C6
:10039000020C43FA05F3C01851EBE37101F000457C
:1003A00007D54FF0000EDCF1000C7EEB00006EEB89
:1003B0000101B1F5801F1BD3B1F5001F0CD3490813
:1003C0005FEA30004FEA3C0C04F101044FEA44526A
:1003D00012F5800F80F09A80BCF1004F08BF5FEAF1
:1003E000500C50F1000041EB045141EA050130BDD1
:1003F0005FEA4C0C404141EB010111F4801FA4F174
:100400000104E9D191F0000F04BF01460020B1FAC8
:1004100081F308BF2033A3F10B03B3F120020CDA00
:100420000C3208DD02F1140CC2F10C0201FA0CF0DE
:1004300021FA02F10CE002F11402D8BFC2F1200C43
:1004400001FA02F120FA0CFCDCBF41EA0C019040F9
:10045000E41AA2BF01EB0451294330BD6FEA040442
:100460001F3C1CDA0C340EDC04F11404C4F120022D
:1004700020FA04F001FA02F340EA030021FA04F33F
:1004800045EA030130BDC4F10C04C4F1200220FA96
:1004900002F001FA04F340EA0300294630BD21FAD4
:1004A00004F0294630BD94F0000F83F4801306BF9A
:1004B00081F480110134013D4EE77FEA645C18BF8E
:1004C0007FEA655C29D094EA050F08BF90EA020F25
:1004D00005D054EA000C04BF1946104630BD91EA1D
:1004E000030F1EBF0021002030BD5FEA545C05D120
:1004F0004000494128BF41F0004130BD14F580045F
:100500003CBF01F5801130BD01F0004545F0FE41D2
:1005100041F470014FF0000030BD7FEA645C1ABF07
:10052000194610467FEA655C1CBF0B46024650EA3E
:10053000013406BF52EA033591EA030F41F400216A
:1005400030BD00BF90F0000F04BF0021704730B5F0
:100550004FF4806404F132044FF000054FF00001C5
:1005600050E700BF90F0000F04BF0021704730B586
:100570004FF4806404F1320410F0004548BF40425B
:100580004FF000013EE700BF42004FEAE2014FEAB0
:1005900031014FEA02701FBF12F07F4393F07F4F8B
:1005A00081F06051704732F07F4208BF704793F08E
:1005B0007F4F04BF41F40021704730B54FF46074A1
:1005C00001F0004521F000411CE700BF50EA0102A4
:1005D00008BF704730B54FF000050AE050EA01024D
:1005E00008BF704730B511F0004502D5404261EBBD
:1005F00041014FF4806404F132045FEA915C3FF4FE
:10060000D8AE4FF003025FEADC0C18BF03325FEA9A
:10061000DC0C18BF033202EBDC02C2F1200300FA4B
:1006200003FC20FA02F001FA03FE40EA0E0021FA70
:1006300002F11444BDE600BF70B54FF0FF0C4CF45E
:10064000E06C1CEA11541DBF1CEA135594EA0C0F10
:1006500095EA0C0F00F0DEF82C4481EA030621EA4B
:100660004C5123EA4C5350EA013518BF52EA033586
:1006700041F4801143F4801338D0A0FB02CE4FF038
:100680000005E1FB02E506F00042E0FB03E54FF068
:100690000006E1FB03569CF0000F18BF4EF0010E60
:1006A000A4F1FF04B6F5007F64F5407404D25FEA5C
:1006B0004E0E6D4146EB060642EAC62141EA55510F
:1006C0004FEAC52040EA5E504FEACE2EB4F1FD0C51
:1006D00088BFBCF5E06F1ED8BEF1004F08BF5FEACF
:1006E000500E50F1000041EB045170BD06F0004681
:1006F00046EA010140EA020081EA0301B4EB5C042E
:10070000C2BFD4EB0C0541EA045170BD41F4801125
:100710004FF0000E013C00F3AB8014F1360FDEBF4A
:10072000002001F0004170BDC4F10004203C35DA26
:100730000C341BDC04F11404C4F1200500FA05F3A9
:1007400020FA04F001FA05F240EA020001F000424A
:1007500021F0004110EBD37021FA04F642EB0601C0
:100760005EEA430E08BF20EAD37070BDC4F10C04EA
:10077000C4F1200500FA04F320FA05F001FA04F2AE
:1007800040EA020001F0004110EBD37041F100019A
:100790005EEA430E08BF20EAD37070BDC4F12005A5
:1007A00000FA05F24EEA020E20FA04F301FA05F20D
:1007B00043EA020321FA04F001F0004121FA04F2B5
:1007C00020EA020000EBD3705EEA430E08BF20EA85
:1007D000D37070BD94F0000F0FD101F000464000BF
:1007E00041EB010111F4801F08BF013CF7D041EA41
:1007F000060195F0000F18BF704703F00046520045
:1008000043EB030313F4801F08BF013DF7D043EA15
:100810000603704794EA0C0F0CEA135518BF95EACB
:100820000C0F0CD050EA410618BF52EA4306D1D152
:1008300081EA030101F000414FF0000070BD50EA71
:10084000410606BF1046194652EA430619D094EAFB
:100850000C0F02D150EA013613D195EA0C0F05D1E5
:1008600052EA03361CBF104619460AD181EA030139
:1008700001F0004141F0FE4141F470014FF00000F1
:1008800070BD41F0FE4141F4780170BD70B54FF08C
:10089000FF0C4CF4E06C1CEA11541DBF1CEA13550C
:1008A00094EA0C0F95EA0C0F00F0A7F8A4EB0504EE
:1008B00081EA030E52EA03354FEA013100F08880E5
:1008C0004FEA03334FF0805545EA131343EA1263AE
:1008D0004FEA022245EA111545EA10654FEA002663
:1008E0000EF000419D4208BF964244F1FD0404F51C
:1008F000407402D25B084FEA3202B61A65EB030578
:100900005B084FEA32024FF480104FF4002CB6EB34
:10091000020E75EB030E22BFB61A754640EA0C00B4
:100920005B084FEA3202B6EB020E75EB030E22BFF4
:10093000B61A754640EA5C005B084FEA3202B6EB35
:10094000020E75EB030E22BFB61A754640EA9C00F4
:100950005B084FEA3202B6EB020E75EB030E22BFC4
:10096000B61A754640EADC0055EA060E18D04FEA82
:10097000051545EA16754FEA06164FEAC30343EA22
:1009800052734FEAC2025FEA1C1CC0D111F4801FEF
:100990000BD141EA00014FF000004FF0004CB6E7E8
:1009A00011F4801F04BF01430020B4F1FD0C88BF87
:1009B000BCF5E06F3FF6AFAEB5EB030C04BFB6EB92
:1009C000020C5FEA500C50F1000041EB045170BD85
:1009D0000EF0004E4EEA113114EB5C04C2BFD4EBB2
:1009E0000C0541EA045170BD41F480114FF0000E36
:1009F000013C90E645EA060E8DE60CEA135594EAB2
:100A00000C0F08BF95EA0C0F3FF43BAF94EA0C0FB4
:100A10000AD150EA01347FF434AF95EA0C0F7FF429
:100A200025AF104619462CE795EA0C0F06D152EA7D
:100A300003353FF4FDAE1046194622E750EA410661
:100A400018BF52EA43067FF4C5AE50EA41047FF472
:100A50000DAF52EA43057FF4EBAE12E74FF0FF3CD7
:100A600006E000BF4FF0010C02E000BF4FF0010CA8
:100A70004DF804CD4FEA410C7FEA6C5C4FEA430C21
:100A800018BF7FEA6C5C1BD001B050EA410C0CBF70
:100A900052EA430C91EA030F02BF90EA020F0020D2
:100AA000704710F1000F91EA030F58BF994208BF39
:100AB00090422CBFD8176FEAE37040F001007047F6
:100AC0004FEA410C7FEA6C5C02D150EA013C07D14D
:100AD0004FEA430C7FEA6C5CD6D152EA033CD3D098
:100AE0005DF8040B704700BF8446104662468C4692
:100AF0001946634600E000BF01B5FFF7B7FF0028C5
:100B000048BF10F1000F01BD4DF808EDFFF7F4FFED
:100B10000CBF012000205DF808FB00BF4DF808ED78
:100B2000FFF7EAFF34BF012000205DF808FB00BF9B
:100B30004DF808EDFFF7E0FF94BF012000205DF8BD
:100B400008FB00BF4DF808EDFFF7CEFF94BF012072
:100B500000205DF808FB00BF4DF808EDFFF7C4FF6B
:100B600034BF012000205DF808FB00BF4FEA410CB4
:100B70007FEA6C5C02D150EA013C0AD14FEA430C97
:100B80007FEA6C5C02D152EA033C02D14FF00000D4
:100B900070474FF0010070474FEA410212F5001212
:100BA00015D211D56FF47873B3EB625212D94FEAB4
:100BB000C12343F0004343EA505311F0004F23FA9E
:100BC00002F018BF404270474FF00000704750EAF3
:100BD000013005D111F0004008BF6FF000407047B0
:100BE0004FF00000704700BF53B94AB9002908BF51
:100BF00000281CBF4FF0FF314FF0FF3000F072B9FA
:100C0000ADF1080C6DE904CE00F006F8DDF804E063
:100C1000DDE9022304B070472DE9F047089E044641
:100C20008846002B4BD18A42154667D9B2FA82F228
:100C30004AB1C2F1200701FA02F320FA07F7954002
:100C400047EA030894404FEA154E230CB8FBFEF721
:100C50001FFA85FC0EFB178843EA084307FB0CF1DB
:100C6000994209D9EB1807F1FF3080F01B819942B6
:100C700040F21881023F2B445B1AA4B2B3FBFEF092
:100C80000EFB103344EA034400FB0CFCA44509D9D5
:100C90002C1900F1FF3380F00781A44540F2048154
:100CA00002382C4440EA0740A4EB0C0400271EB194
:100CB000D4400023C6E900433946BDE8F0878B42A3
:100CC00009D9002E00F0EB800027C6E90001384664
:100CD0003946BDE8F087B3FA83F7002F47D18B423E
:100CE00002D3824200F2FA80841A61EB03030120EE
:100CF0009846002EE0D0C6E90048DDE702B9FFDEE5
:100D0000B2FA82F2002A40F08F80491B4FEA154E5A
:100D10001FFA85F80127B1FBFEFC230C0EFB1C110A
:100D200043EA014308FB0CF1994207D9EB180CF197
:100D3000FF3002D2994200F2CD808446591AA3B204
:100D4000B1FBFEF00EFB101443EA044408FB00F86C
:100D5000A04507D92C1900F1FF3302D2A04500F2BB
:100D6000B6801846A4EB080440EA0C409FE7C7F1A0
:100D7000200CBB4022FA0CFE4EEA030E01FA07F4E7
:100D800020FA0CF521FA0CF34FEA1E482543B3FB79
:100D9000F8F92C0C08FB19331FFA8EFA44EA0343C6
:100DA00009FB0AF49C4202FA07F200FA07F10BD998
:100DB0001EEB030309F1FF3080F087809C4240F274
:100DC0008480A9F1020973441B1BADB2B3FBF8F098
:100DD00008FB103345EA034400FB0AFAA24508D990
:100DE0001EEB040400F1FF336BD2A24569D902382F
:100DF000744440EA0940A0FB0289A4EB0A044C4574
:100E0000C2464B4654D351D0002E69D0B1EB0A05EF
:100E100064EB030404FA0CFCFD40FC404CEA0505BD
:100E2000C6E90054002747E7C2F1200320FA03F780
:100E3000954001FA02F021FA03F34FEA154E3843C8
:100E4000010CB3FBFEF71FFA85F80EFB173341EADE
:100E5000034107FB08F38B4204FA02F407D969182F
:100E600007F1FF3C2FD28B422DD9023F2944CB1AE8
:100E700081B2B3FBFEF00EFB103341EA034100FBED
:100E800008F38B4207D9691800F1FF3C17D28B4257
:100E900015D902382944C91A40EA07473BE73746C3
:100EA000304609E70746E7E61846FBE64145ABD280
:100EB000B8EB020A69EB0E0201381346A4E760465C
:100EC000E9E7184695E76746D1E781467CE70238AF
:100ED0002C4447E7ACF1020C2B442FE7384608E7D7
:100EE0003746E9E6704700BF80B582B000AF0346E1
:100EF000FB80C82000F0D8FE00F07AFA00BF083767
:100F0000BD4680BD80B483B000AF0346FB8000BF08
:100F10000C37BD465DF8047B704780B584B000AFE8
:100F20000346FB8000237B730023FB730023BB730A
:100F300000F05EFA0023FB7310E0FB88DBB2A8210F
:100F4000184600F093FE03467B737B7BDBB2512B8C
:100F500001D10123BB73FB7B0133FB73FB7B022BB2
:100F600002D8BB7B002BE8D07B7BDBB29BB2184660
:100F70001037BD4680BD80B582B000AF0346FB8010
:100F8000FB88184600F044FAFB88184600F032F956
:100F900000BF0837BD4680BD80B584B000AF0346B2
:100FA000FB800023FB73FB88DBB20221184600F0B4
:100FB0005DFE0346FB73FB7BDBB203F00F03DBB28A
:100FC000FB73FB7BDBB2052B01D90023FB73FB7B9F
:100FD000DAB2054B5A70044B00229A70FB7BDBB2ED
:100FE00018461037BD4680BD2C02002080B586B063
:100FF00000AF0346B9607A60FB810023FB740023D5
:10100000FB750023BB7500237B7500233B756D4B7F
:101010009A786C4B5B789A4280F0CF80694B9B78D2
:10102000092B71D801A252F823F000BF5510000817
:1010300067100008791000088B1000089D10000848
:10104000AF100008C1100008D3100008E510000818
:10105000F71000080423FB750323BB7506237B757B
:1010600005233B7551E00A23FB750923BB750C234F
:101070007B750B233B7548E01023FB750F23BB7575
:1010800012237B7511233B753FE01623FB75152357
:10109000BB7518237B7517233B7536E01C23FB7546
:1010A0001B23BB751E237B751D233B752DE022235F
:1010B000FB752123BB7524237B7523233B7524E01B
:1010C0002823FB752723BB752A237B7529233B75B2
:1010D0001BE02E23FB752D23BB7530237B752F233F
:1010E0003B7512E03423FB753323BB7536237B75C8
:1010F00035233B7509E03A23FB753923BB753C2347
:101100007B753B233B7500E000BFFB89DBB2FA7DBA
:101110001146184600F0AAFD0346FB74FB7CDBB2C7
:101120009AB2294B1A80FB89DBB2BA7D1146184668
:1011300000F09CFD0346FB74FB7CDBB21B0203F456
:1011400070631AB2204B1B881BB213431BB29AB2B6
:101150001D4B1A801C4B1A88BB681A80FB89DBB2B6
:101160007A7D1146184600F081FD0346FB74FB7C36
:10117000DBB29AB2144B1A80FB89DBB23A7D11467E
:10118000184600F073FD0346FB74FB7CDBB21B02C8
:1011900003F470631AB20C4B1B881BB213431BB2CF
:1011A0009AB2094B1A80084B1A887B681A80054B43
:1011B0009B780133DAB2034B9A7000BF1837BD46F3
:1011C00080BD00BF2C0200203002002080B584B01A
:1011D00000AF0346FB800023FB730123FB73FB88F6
:1011E000DBB2FA7BA421184600F026FD00BF1037C1
:1011F000BD4680BD80B584B000AF0346FB800023B0
:10120000FB730023FB73FB88DBB2FA7BA421184637
:1012100000F012FD00BF1037BD4680BD80B483B022
:1012200000AF0346FB80002318460C37BD465DF82F
:10123000047B704780B483B000AF0346FB8000BFDF
:101240000C37BD465DF8047B704780B584B000AFB5
:1012500003463960FB800023FB73FB88DBB201216E
:10126000184600F003FD0346FB73FB7BDBB21A4616
:101270003B681A6000BF1037BD4680BD80B586B0A0
:1012800000AFB9607A603B600346FB8100233B7589
:101290000023FB750023BB7500237B754D4B5B78EA
:1012A0001A46BB68934280F09080BB68092B5DD8DA
:1012B00001A252F823F000BFE1120008EF1200086B
:1012C000FD1200080B13000819130008271300086B
:1012D0003513000843130008511300085F1300087A
:1012E0000323FB750723BB7508237B753FE00923A8
:1012F000FB750D23BB750E237B7538E00F23FB7543
:101300001323BB7514237B7531E01523FB7519235B
:10131000BB751A237B752AE01B23FB751F23BB7546
:1013200020237B7523E02123FB752523BB75262312
:101330007B751CE02723FB752B23BB752C237B754A
:1013400015E02D23FB753123BB7532237B750EE031
:101350003323FB753723BB7538237B7507E03923AF
:10136000FB753D23BB753E237B7500E000BFFB8909
:10137000DBB2FA7D1146184600F078FC03463B7557
:101380003B7DDBB29B1103F003023B6A1A60FB89D1
:10139000DBB2BA7D1146184600F068FC03463B7587
:1013A0003B7DDBB21A467B681A60FB89DBB27A7D33
:1013B0001146184600F05AFC03463B753B7DDBB2F4
:1013C0001B1103F004023B681A6000BF1837BD46CA
:1013D00080BD00BF2C02002080B400AF034B1B78FF
:1013E0001846BD465DF8047B704700BF2C02002004
:1013F00080B500AFFFF7F0FF0346002B04D100F0EB
:1014000011FC024B01221A7000BF80BD2C0200208B
:1014100080B485B000AF0346FB800023FB60FB680F
:1014200018461437BD465DF8047B704798B500AF89
:1014300002F0DDFB00F054F800F0B4F900F05EF9C2
:1014400000F036F900F0E0F800F000F900211E4845
:1014500005F08AFB642002F027FC01F0E3F84FF46A
:1014600088714FF4F07001F093FA00F029FC4FF00E
:101470004041002000F0BCFC00F0BCFE002000F069
:1014800017FD124800F03EFD4FF47A7002F00CFC9C
:101490000F4801F0BDFA0F4B1B681846FFF774F8B0
:1014A00003460C461A4623460B490C4806F0F0FD4D
:1014B00003230A4A8221642000F090FD4FF47A70E1
:1014C00002F0F2FBE4E700BF28050020FF0000FF68
:1014D0007C0400204002002068980008A804002036
:1014E00080B5B4B000AF07F1A00330220021184648
:1014F00006F06AF907F18C0300221A605A609A60BC
:10150000DA601A6107F1080384220021184606F008
:101510005BF904F01FF93A4B1B6C394A43F08053D6
:101520001364374B1B6C03F080537B607B68354B37
:101530001B68344A43F440431360324B1B6803F486
:1015400040433B603B680923C7F8A0304FF4803329
:10155000C7F8A4300123C7F8B4300223C7F8B83065
:101560004FF48003C7F8BC300C23C7F8C030C02349
:10157000C7F8C4300223C7F8C8300923C7F8CC30F5
:1015800007F1A003184604F05FF90346002B01D0D1
:1015900000F0EEF904F008F90346002B01D000F04A
:1015A000E7F90F23C7F88C300223C7F890300023E7
:1015B000C7F894304FF4A053C7F898304FF4A053B5
:1015C000C7F89C3007F18C030621184604F0E0FBB5
:1015D0000346002B01D000F0CBF92023BB604FF471
:1015E0000073BB6307F10803184604F08FFD034640
:1015F000002B01D000F0BCF900BFD037BD4680BD44
:10160000003802400070004080B500AF0D4B0E4A1C
:101610001A600C4B00221A710A4B00225A71094BB6
:1016200000225A61074B00229A61064B01221A627E
:10163000044802F06DFC0346002B01D000F098F93D
:1016400000BF80BD540400200030024080B500AFD0
:10165000154B164A1A60144B00225A60124B002296
:101660009A60114B0022DA600F4B00229A620E4BF7
:101670000022DA620C4B00221A630B4B00225A63E1
:10168000094802F0EBFE0346002B01D000F070F990
:101690000121054803F040F80346002B01D000F07B
:1016A00067F900BF80BD00BFE804002000B0024021
:1016B00080B500AF0F4B104A1A600E4B00225A60E3
:1016C0000C4B7F229A600B4BFF22DA60094B002201
:1016D0001A61084B00225A61064B00229A610548A4
:1016E00005F004F90346002B01D000F041F900BFDA
:1016F00080BD00BFC80400200028004080B588B02D
:1017000000AF07F1140300221A605A609A603B1D73
:1017100000221A605A609A60DA60214B4FF08042D2
:101720001A601F4B09225A601D4B00229A601C4B05
:101730004FF0FF32DA601A4B00221A61184B002278
:101740009A61174805F0B8F90346002B01D000F064
:101750000FF900237B610023FB6107F11403194695
:101760000F4805F05BFF0346002B01D000F000F9A5
:1017700000237B600123BB600023FB600F233B61E0
:101780003B1D00221946064805F057FC0346002B76
:1017900001D000F0EDF800BF2037BD4680BD00BF8E
:1017A0002805002080B58AB000AF07F1140300229D
:1017B0001A605A609A60DA601A61234B1B6B224AE6
:1017C00043F001031363204B1B6B03F001033B61E8
:1017D0003B691D4B1B6B1C4A43F4807313631A4B0C
:1017E0001B6B03F48073FB60FB68174B1B6B164A83
:1017F00043F004031363144B1B6B03F00403BB603F
:10180000BB68114B1B6B104A43F0800313630E4BF4
:101810001B6B03F080037B607B68002202210B4876
:1018200003F052FA02237B610123BB610023FB61B9
:1018300000233B6207F114031946044803F09AF8A9
:1018400000BF2837BD4680BD00380240002002405E
:1018500080B582B000AF78607B681B7F012B76D1AA
:101860003D4B1B78002B0ED10021786805F07AFCE7
:1018700007EE900AF8EE677A384BC3ED007A364BE4
:1018800001221A7063E0344B1B78002B5FD00021DB
:10189000786805F067FC07EE900AF8EE677A304B3F
:1018A000C3ED007A2E4B93ED007A2C4BD3ED007AEA
:1018B000B4EEE77AF1EE10FA0BDD294B93ED007AE6
:1018C000264BD3ED007A77EE677A264BC3ED007A8C
:1018D00020E0234B93ED007A204BD3ED007AB4EE59
:1018E000E77AF1EE10FA13D51C4BD3ED007A9FED99
:1018F0001E7A37EE677A1A4BD3ED007A77EE277AA5
:10190000B7EE007A77EE877A164BC3ED007A01E0E6
:1019100000F02EF804F0E6FB03465B0007EE903A79
:10192000F8EE676A0F4B93ED007AC6EE877A0F4B9D
:10193000C3ED007A0D4B93ED007AF2EE046AC7EE28
:10194000267A0A4BC3ED007A034B00221A7000BFBF
:101950000837BD4680BD00BF44020020340200208D
:10196000380200203C02002000FF7F474002002098
:1019700080B400AF72B6FEE780B58CB000AF78607F
:101980007B68514A93424DD1504B1B6B4F4A43F0F9
:10199000800313634D4B1B6B03F08003BB61BB697A
:1019A0008023FB6112233B6200237B620223BB6224
:1019B0000423FB6207F11C031946454802F0DAFFD5
:1019C0004FF48073FB6107F11C031946404802F095
:1019D000D1FF3E4B1B6C3D4A43F4000313643B4B69
:1019E0001B6C03F400037B617B69384B1B6A374A2D
:1019F00043F400031362354B1B6A344A23F400039B
:101A0000136200220F21482002F04BFA482002F016
:101A100064FA00220F21492002F043FA492002F023
:101A20005CFA4DE0294B1B6B284A43F00203136319
:101A3000264B1B6B03F002033B613B694FF4807341
:101A4000FB6112233B6200237B620223BB620423FF
:101A5000FB6207F11C0319461E4802F08BFF4FF48E
:101A60000073FB6107F11C0319461A4802F082FF5C
:101A7000164B1B6C154A43F400131364134B1B6C79
:101A800003F40013FB60FB68104B1B6A0F4A43F41E
:101A9000001313620D4B1B6A0C4A23F400131362EC
:101AA00000220F211F2002F0FCF91F2002F015FA7E
:101AB00000220F21202002F0F4F9202002F00DFA7C
:101AC00000BF3037BD4680BD4802002000380240CC
:101AD000001C02400004024080B582B000AF786074
:101AE000786803F00DFC0346002B25D17B68144A6F
:101AF000934203D17B68134A1A6002E07B68124A62
:101B00001A607B68114A5A607B6800229A607B6881
:101B10000122DA607B6800221A617B6800225A6128
:101B20007B680022DA617B6800221A627868FFF71E
:101B300023FF786803F0E2F800BF0837BD4680BD98
:101B400048020020005C00400054004032279140D1
:101B500080B58AB004AFF860084611461A460346BD
:101B6000FB720B463B811346FB800023FB75FB7A1F
:101B700099B2F8883A894FF47A730293BB8C019337
:101B80003B6A00930346F86803F0A0FA0346FB752E
:101B9000FB7D002B04D0FB7A1946F86800F032F880
:101BA000FB7D18461837BD4680BD80B58AB004AFAE
:101BB000F860084611461A460346FB720B463B8105
:101BC0001346FB800023FB75FB7A99B2F8883A89AB
:101BD0004FF47A730293BB8C01933B6A00930346E4
:101BE000F86803F05FF90346FB75FB7D002B04D01A
:101BF000FB7A1946F86800F005F8FB7D184618379F
:101C0000BD4680BD80B582B000AF78600B46FB70EA
:101C1000786803F003F97868FFF75EFF00BF0837C4
:101C2000BD4680BD80B500AF0248FFF755FF00BF3D
:101C300080BD00BF4802002080B584B002AF0346DB
:101C4000FB710B46BB7113467B71BB799AB2F97974
:101C5000012301937B1D009301230348FFF7A5FF98
:101C600000BF0837BD4680BD4802002080B586B061
:101C700002AF03460A46FB711346BB710023FB7398
:101C8000BB799AB2F9790123019307F10F0300930D
:101C900001230448FFF75CFFFB7B18461037BD4665
:101CA00080BD00BF4802002080B582B000AF7860E0
:101CB000786801F0F9FF00BF0837BD4680BD00001D
:101CC00080B500AF314B28225A61304B09229A610E
:101CD0002E4B3522DA612D4B0B221A622B4B40F230
:101CE0001B129A62294B40F215225A62274B40F28E
:101CF0001D121A63254B40F23522DA620021234877
:101D000000F070FB214B4FF4F0721A661F4B4FF43A
:101D100088725A661D4B002283F834201B4B002228
:101D200083F83520194B002283F83620174B002208
:101D30005A60164B00229A60144B0022DA60134B53
:101D400000221A61114B124A1A60104801F06EFA13
:101D50000346002B03D100210C4800F069FA0B4820
:101D600001F076F801224FF480510A4802F0ACFFEE
:101D700001220821084802F0A7FF00F053FC0748A1
:101D800000F0A6F80023184680BD00BF78050020AB
:101D900000680140002002400028024000000020AE
:101DA00080B400AF064B1B68064A342101FB03F3E5
:101DB000134460331B681846BD465DF8047B7047CA
:101DC000D40200207805002080B400AF064B1B68C9
:101DD000064A342101FB03F3134464331B6818469D
:101DE000BD465DF8047B7047D402002078050020D2
:101DF00080B590B000AF03463960FB800023FB60E4
:101E0000FFF7CEFF03463B6100237B61FFF7DCFF5A
:101E10000346BB610023FB613B683B63FF233B62DE
:101E200000237B62002387F83C30002387F83D3095
:101E3000002387F83E304FF4C063BB620723FB6288
:101E4000FFF7AEFF03467B63FFF7BEFF0346BB63AE
:101E5000FA8807F10C031946124801F0A9F9FA882B
:101E6000114913465B0013449B000B4404334FF0AD
:101E7000FF321A60FA880C4913465B0013449B003A
:101E80000B440833094A1A60FA88074913465B0075
:101E900013449B000B444FF07F421A6000BF403751
:101EA000BD4680BD78050020D8020020000000203B
:101EB00080B483B000AF7860044A7B68136000BFD1
:101EC0000C37BD465DF8047B704700BFD40200208C
:101ED00080B483B000AF7860084B1A680849134695
:101EE0005B0013449B000B4408337A681A6000BF00
:101EF0000C37BD465DF8047B704700BFD40200205C
:101F0000D8020020F0B585B002AF78600F4B1C6896
:101F10000E4B1B680E4A342101FB03F313445C3360
:101F20001B681D46FFF73CFF0646FFF74DFF0246C4
:101F30007B680193002300931346324629462046CE
:101F400000F024FB00BF0C37BD46F0BDD4020020DA
:101F50007805002090B583B000AF0346FB800B46A8
:101F6000BB801346FB701B4B1A681B4913465B0072
:101F700013449B000B4408331B681968FB78A3F1DA
:101F80002000144B1A68144C13465B0013449B004A
:101F9000234408331B68DB8803FB00F00D4B1A68F1
:101FA0000D4C13465B0013449B00234408331B680D
:101FB0009B880733002B00DA0733DB1003FB00F3A9
:101FC000CA18B988FB88184600F028FA00BF0C37F9
:101FD000BD4690BDD4020020D8020020B0B588B024
:101FE00000AFBA601A460346FB810B46BB8113461D
:101FF000FB710123FB830023BB830023BB61002310
:102000003B61BB687B6102E0BB690133BB617B69FB
:102010005A1C7A611B78002BF6D1FFF7C1FE4F4B9B
:102020001A684F4913465B0013449B000B44083366
:102030001B689B88B0FBF3F33B61FB79022B1CD040
:10204000032B17D0012B2ED13A69BB69D11A434B10
:102050001A68434813465B0013449B00034408334B
:102060001B689B8803FB01F35B089AB2FB8913444E
:10207000FB831BE0FB89FB8318E03A69BB69D31A39
:1020800099B2364B1A68364813465B0013449B00DE
:10209000034408331B689B8811FB03F39AB2FB8946
:1020A000D31AFB8302E0FB89FB8300BFFB8B002B71
:1020B00003D0B7F91E30002B1DDA0123FB831AE091
:1020C000BB681A78B989FB8B1846FFF743FF234B8F
:1020D0001A68234913465B0013449B000B440833E2
:1020E0001B689A88FB8B1344FB83BB680133BB607E
:1020F000BB8B0133BB83BB681B78002B14BF012350
:102100000023DCB2FFF74CFE0546B98B134B1A686F
:10211000134813465B0013449B00034408331B68B9
:102120009B8803FB01F3EB1A99B20C4B1A680C481D
:1021300013465B0013449B00034408331B689B88D1
:1021400099422CBF01230023DBB22340DBB2002BDA
:10215000B6D100BF2037BD46B0BD00BFD4020020BD
:10216000D8020020B0B582B000AF03463A60FB80D1
:102170000B46BB801D4B1B681D4A342101FB03F33A
:10218000134448331B68022B16D1184B1B68184A9E
:10219000342101FB03F313445C331C68BD88FFF753
:1021A000FFFD034603FB05F2FB8813445B00234459
:1021B0003A6892B21A8015E00C4B1B680C4A342125
:1021C00001FB03F313445C331C68BD88FFF7E8FD93
:1021D000034603FB05F2FB8813449B0023441A4685
:1021E0003B68136000BF0837BD46B0BDD402002075
:1021F0007805002080B500AF0A4B1B689A69094B2F
:102200001B6842F001029A6101224FF48051064896
:1022100002F05AFD01220821044802F055FD00BFDA
:1022200080BD00BF78050020002002400028024049
:1022300080B590B000AF78603960644B5B6C634AE6
:1022400043F080635364614B5B6C03F08063BB625B
:10225000BB6A5E4B1B6B5D4A43F4000313635B4B2D
:102260001B6B03F400037B627B6A584B1B6B574A62
:1022700043F010031363554B1B6B03F010033B62D9
:102280003B6A524B1B6B514A43F0400313634F4B65
:102290001B6B03F04003FB61FB694C4B1B6B4B4A10
:1022A00043F480731363494B1B6B03F48073BB616E
:1022B000BB69464B1B6B454A43F400731363434BA6
:1022C0001B6B03F400737B617B69404B1B6B3F4AC4
:1022D00043F4806313633D4B1B6B03F480633B61EA
:1022E0003B693A4B1B6B394A43F480731363374B9A
:1022F0001B6B03F48073FB60FB68344B1B6B334A2E
:1023000043F480631363314B1B6B03F48063BB6046
:10231000BB681023FB6202233B6300237B63022321
:10232000BB630E23FB6307F12C031946284802F018
:1023300021FB4FF48053FB6202233B630923FB63C1
:1023400007F12C031946234802F014FB4FF46643AF
:10235000FB6202233B630E23FB6307F12C03194648
:102360001D4802F007FB4EF6FF73FB6202233B633E
:102370000E23FB6307F12C031946184802F0FAFA02
:10238000F723FB6202233B630E23FB6307F12C035D
:102390001946134802F0EEFA4FF48053FB62012312
:1023A0003B6307F12C0319460B4802F0E3FA0823BC
:1023B000FB6201233B6307F12C031946084802F036
:1023C000D9FA00BF4037BD4680BD00BF003802408B
:1023D0000010024000180240002002400024024089
:1023E0000028024080B582B000AF786039600A4BA7
:1023F00008221A60084BC0225A61074B0522DA6195
:10240000054B4FF48032DA62034803F07FFE00BFD1
:102410000837BD4680BD00BFF002002080B588B0FF
:1024200000AF03463A60FB800B46BB800023FB6194
:102430000023BB61534B1A68534913465B00134496
:102440009B000B4408331B68DB887B824D4B1A686A
:102450004D4913465B0013449B000B4408331B6833
:102460009B883B823B8A0733002B00DA0733DB1063
:10247000DBB2DB00DAB23B8ADBB2D31AFB73002398
:10248000FB6176E03B8A0733002B00DA0733DB1071
:102490001A46FB6903FB02F33A681344BB603B8AAC
:1024A0000733002B00DA0733DB10012B02D0022B9D
:1024B00004D00CE0BB681B787B6116E0BB681B781E
:1024C0001B02BA680132127813437B610DE0BB68CE
:1024D0001B781A04BB6801331B781B021343BA68CC
:1024E0000232127813437B6100BF0023BB6136E0E8
:1024F0003A8ABB69D21AFB7B1344013B012202FAE0
:1025000003F31A467B691340002B12D0BB699AB2C1
:10251000FB88134498B21B4B1A681B4913465B0097
:1025200013449B000B441A68BB881946FFF71AFE38
:1025300012E0BB699AB2FB88134498B2114B1A6837
:10254000114913465B0013449B000B4404331A6883
:10255000BB881946FFF706FEBB690133BB613B8AA6
:10256000BA699A42C4D3BB880133BB80FB6901338B
:10257000FB617B8AFA699A4284D300BF2037BD464B
:1025800080BD00BFD4020020D802002080B586B0F4
:1025900002AFF860B9607A603B601E4B4FF4403286
:1025A0005A601D4B1B681D4A342101FB03F3134481
:1025B00048331B68022B03D1164B02229A6002E0BB
:1025C000144B00229A60134ABB69D360114B144A22
:1025D0001A60104801F042FF0346002B15D1F9683C
:1025E0000C4802F099F80346002B0ED1BA683B68FC
:1025F00000937B68F969074801F07AFF0346002BD6
:1026000003D10A21034801F09EFF00BF1037BD46E9
:1026100080BD00BF94020020D40200207805002075
:1026200000B0024080B500AF294B2A4A1A602A4BFD
:1026300002221A60284B07225A60274B04229A6014
:10264000254B0722DA60244B02221A61224B022218
:102650005A61214B02229A611D4B00225A601C4B89
:1026600000229A601A4B0422DA60194B10221A6178
:10267000174B40225A61164B4FF480729A61144BEB
:102680000022DA61124B4FF400621A62104B4FF4D1
:1026900080525A620E4B00229A6200210C4800F0D0
:1026A0007FF80D490A4801F03DF80346002B03D09E
:1026B0000A4B01221A7002E0084B00221A7040F205
:1026C000036000F00DF8054B1B78184680BD00BF75
:1026D00020060020400100A07403002030000020EC
:1026E00080B584B000AF78600023FB602A4B0122E4
:1026F0001A60294B10225A60274B01229A60264B00
:102700000022DA604FF6FF722349244801F048F8AE
:10271000012001F0C9FA204B02221A601E4B102240
:102720005A601D4B01229A601B4B0022DA604FF663
:10273000FF721949194801F033F8174B03221A6048
:10274000154B10225A60144B08229A60124B00223B
:10275000DA604FF6FF721049104801F021F84FF48B
:102760000873FB600C4B04221A600B4B10225A605A
:10277000094B01229A60FB68074AD3604FF6FF724B
:102780000549064801F00CF87968044801F033F86F
:1027900000BF1037BD4680BD9003002020060020FA
:1027A00080B590B000AF78603960704B9B6B6F4A1A
:1027B00043F0010393636D4B9B6B03F00103BB621A
:1027C000BB6A6A4B1B6B694A43F480031363674B14
:1027D0001B6B03F480037B627B6A644B1B6B634A55
:1027E00043F004031363614B1B6B03F004033B6270
:1027F0003B6A5E4B1B6B5D4A43F0080313635B4B04
:102800001B6B03F00803FB61FB69584B1B6B574ABA
:1028100043F010031363554B1B6B03F01003BB61B4
:10282000BB69524B1B6B514A43F0200313634F4B60
:102830001B6B03F020037B617B694C4B1B6B4B4A8A
:1028400043F040031363494B1B6B03F040033B61B0
:102850003B69464B1B6B454A43F080031363434B74
:102860001B6B03F08003FB60FB6802233B630123C7
:102870007B630223BB630C23FB630823FB6207F12A
:102880002C0319463A4802F075F84CF20373FB62C8
:1028900007F12C031946374802F06CF84FF68373A2
:1028A000FB6207F12C031946334802F063F84FF638
:1028B0003F03FB6207F12C031946304802F05AF837
:1028C00048F23313FB6207F12C0319462C4802F03F
:1028D00051F82823FB6207F12C031946294802F01E
:1028E00049F8294B00225A60274B80229A60264BD8
:1028F0004FF40072DA60244B4FF480621A61224B6D
:102900004FF480525A61204B4FF480429A611E4B23
:102910000022DA611C4B4FF400321A621A4B00227B
:102920005A62194B03229A62174B0022DA62164B45
:1029300000221A63144B154A1A607B68124A1A6304
:10294000114A7B689363104801F07AFC0E4801F04D
:10295000C9FB00220F21382001F0A3FA382001F032
:10296000BCFA00BF4037BD4680BD00BF0038024002
:1029700000080240000C0240001002400014024017
:1029800000180240001C0240A00300201064024016
:1029900080B584B000AF03460A46FB801346BB8077
:1029A0000023FB73144AFB881380144ABB881380EE
:1029B000134B1B6870209847114B5B687020984739
:1029C0000346512B11D10F4B0D4A1A600E4B70224A
:1029D0001A700E4B08221A700A4B1B68DB680A4AF1
:1029E000127892B21046984701E00323FB73FB7BF9
:1029F00018461037BD4680BD0404002006040020A0
:102A00000800002000040020090400200804002021
:102A100090B597B002AF7860002387F84F3000235D
:102A20003B610023FB600023BB60974B1B681B6965
:102A3000964A127892B21046984703461A467B6827
:102A40001A707B681B78002B00F0A8810023BB6400
:102A500097E18D4B1B685B698C4A127890B207F145
:102A60002001BA6C52008C1807F11401BA6C5200A4
:102A70000A4421469847864B1B78012B1BD1BB6C1F
:102A80005B0007F15002134433F8302CBB6C5B0041
:102A900007F150010B4423F8182CBB6C5B0007F1C5
:102AA0005002134433F83C2CBB6C5B0007F150011F
:102AB0000B4423F8242C764B1B7803F00203002BE5
:102AC00010D0BB6C5B0007F15002134433F8303C6C
:102AD000C3F580539AB2BB6C5B0007F150010B4405
:102AE00023F8182C6A4B1B7803F00403002B10D03A
:102AF000BB6C5B0007F15002134433F83C3CC3F558
:102B000080539AB2BB6C5B0007F150010B4423F871
:102B1000242C5F4B1B7803F00803002B1BD0BB6CED
:102B20005B0007F15002134433F8302CBB6C5B00A0
:102B300007F150010B4423F8242CBB6C5B0007F118
:102B40005002134433F83C2CBB6C5B0007F150017E
:102B50000B4423F8182CBB6C5B0007F150021344A4
:102B600033F8183C19464B4ABB6C52F82330994253
:102B70000ED9BB6C5B0007F15002134433F8182CDC
:102B80004449BB6C51F823309BB2D31A9BB20DE081
:102B9000404ABB6C52F823309AB2BB6C5B0007F121
:102BA00050010B4433F8183CD31A9BB2A7F84630B7
:102BB000BB6C5B0007F15002134433F8243C194608
:102BC000354ABB6C52F8233099420ED9BB6C5B007E
:102BD00007F15002134433F8242C2F49BB6C51F8F1
:102BE00023309BB2D31A9BB20DE02B4ABB6C52F838
:102BF00023309AB2BB6C5B0007F150010B4433F8F1
:102C0000243CD31A9BB2A7F84430B7F84620B7F853
:102C100044301344052B17DDBB6C5B0007F15002F9
:102C2000134433F8183C19461A4ABB6C42F8231077
:102C3000BB6C5B0007F15002134433F8243C194687
:102C4000154ABB6C42F82310104B1B78702B25D112
:102C5000BB6C5B0007F15002134433F8181C7A6810
:102C6000BB6C5B0013440A465A80BB6C5B0007F1E7
:102C70005002134433F8241C7A68BB6C04335B00A5
:102C800013440A469A802CE0000400200904002026
:102C9000080400200C04002020040020424B1B8864
:102CA0001946424ABB6C52F8233003FB01F31B0B5D
:102CB00099B27A68BB6C5B0013440A465A803C4B5D
:102CC0001B8819463B4ABB6C52F8233003FB01F3C7
:102CD0001B0B99B27A68BB6C04335B0013440A4641
:102CE0009A80354B1B7898B207F10C0107F110025E
:102CF00007F1080300930B46B96CFEF7BFFA3B6976
:102D0000D9B27A68BB6C134416330A461A70FB6852
:102D1000D9B27A68BB6C134420330A461A70BB6878
:102D2000032B27D801A252F823F000BF3D2D000845
:102D30004B2D0008592D0008672D00087A68BB6CE0
:102D400013441B3301221A7018E07A68BB6C1344D9
:102D50001B3302221A7011E07A68BB6C13441B33D8
:102D600003221A700AE07A68BB6C13441B330022FA
:102D70001A7003E0012387F84F3000BFBB6C0133AA
:102D8000BB647B681B781A46BB6C9342FFF461AE50
:102D9000786800F013F8034687F84F3097F84F3003
:102DA00018465437BD4690BD040400200C04002092
:102DB00006040020200400200904002080B584B00F
:102DC00000AF78600023BB600023FB731F4B1B78B0
:102DD0009BB207F1080211461846FEF736FABB68A7
:102DE000182B1BD0182B06D8102B0FD0142B11D05A
:102DF000002B07D022E0402B18D0492B1AD01C2BD7
:102E000010D01BE07B6800229A621AE07B680122E6
:102E10009A6216E07B6802229A6212E07B680322C3
:102E20009A620EE07B6804229A620AE07B680522BF
:102E30009A6206E07B6806229A6202E00123FB7335
:102E400000BFFB7B18461037BD4680BD090400203B
:102E500080B584B000AF78600023FB600023BB60C6
:102E60007B68002B01D10123C7E07B6893F8A13078
:102E7000DBB2002B06D17B68002283F8A0207868A3
:102E800000F0C2F87B68022283F8A1207B681B68EF
:102E90009A697B681B6822F070429A617B681B68A4
:102EA00099697B685A687B689B681A437B68DB6812
:102EB0001A437B681B691A437B681B680A439A6143
:102EC0007B681B6899687B681A684E4B0B4093605F
:102ED0007B685B691B04FB607B681B6899687B6887
:102EE0009A69FB681A437B681B680A439A607B688F
:102EF0001B68D9687B681A68424B0B40D3607B68BB
:102F0000DB691B04FB607B681B68D9687B681A6AF5
:102F1000FB681A437B681B680A43DA607B681B689E
:102F200019697B681A68374B0B4013617B685B6AD1
:102F30001B04FB607B681B6819697B689A6AFB68E5
:102F40001A437B681B680A431A617B681B685969CE
:102F50007B681A682B4B0B4053617B68DB6A1B0450
:102F6000FB607B681B6859697B681A6BFB681A43B6
:102F70007B681B680A435A617B6893F835301B02F3
:102F8000FB607B6893F836301B04BB607B681B6872
:102F9000DA6A7B681B6802F07F42DA627B681B6832
:102FA000D96ABA68FB6813437A6892F834201A43E6
:102FB0007B681B680A43DA627B681B685A6B7B6814
:102FC0001B6842F004025A637B681B685A6B7B687B
:102FD0001B6842F002025A637B681B689A697B682F
:102FE0001B6842F001029A617B680022C3F8A420AA
:102FF0007B68012283F8A120002318461037BD46C4
:1030000080BD00BF00F800F080B483B000AF7860EE
:1030100000BF0C37BD465DF8047B704780B582B0B9
:1030200000AF78607B681B689B6B03F00403002B88
:1030300025D07B681B689B6B03F00403002B1ED01C
:103040007B681B685A6B7B681B6822F004025A631A
:103050007B681B680422DA637B68D3F8A43043F0F2
:1030600001027B68C3F8A4207B68042283F8A120B6
:103070007B68002283F8A020786800F07BF87B68EA
:103080001B689B6B03F00203002B25D07B681B6839
:103090009B6B03F00203002B1ED07B681B685A6BEE
:1030A0007B681B6822F002025A637B681B6802225D
:1030B000DA637B68D3F8A43043F002027B68C3F87C
:1030C000A4207B68042283F8A1207B68002283F877
:1030D000A020786800F04EF87B681B689B6B03F0BB
:1030E0000103002B1DD07B681B689B6B03F0010361
:1030F000002B16D07B681B685A6B7B681B6822F01C
:1031000001025A637B681B680122DA637B68012233
:1031100083F8A1207B68002283F8A020786800F063
:1031200033F87B681B689B6B03F00803002B1DD0F2
:103130007B681B689B6B03F00803002B16D07B6831
:103140001B685A6B7B681B6822F008025A637B6815
:103150001B680822DA637B68012283F8A1207B6860
:10316000002283F8A020786800F018F800BF083724
:10317000BD4680BD80B483B000AF786000BF0C371F
:10318000BD465DF8047B704780B483B000AF7860C3
:1031900000BF0C37BD465DF8047B704780B483B038
:1031A00000AF786000BF0C37BD465DF8047B704708
:1031B000B0B584B000AFF860B9607A60FB6893F88E
:1031C000A030012B01D102232CE0FB68012283F8FF
:1031D000A020FB68022283F8A120FA687B683421D2
:1031E00001FB03F3134403F13802BB6814461D4688
:1031F0000FCD0FC40FCD0FC40FCD0FC42B682360AC
:103200007A68B968F86800F01FF8FB681B6801224B
:103210005A62FB68012283F8A120FB68002283F830
:10322000A020002318461037BD46B0BD80B483B03F
:1032300000AF78607B6893F8A130DBB218460C379A
:10324000BD465DF8047B704780B489B000AFF8607C
:10325000B9607A600023FB610023BB6100237B61BE
:10326000BB685A68FB681B68DB681B0CC3F30B0365
:1032700013441B04FB61FB681B681A467B68DB0177
:10328000134484335B68FA68126811467A68D20185
:103290000A44843203F470435360BB681A68FB68C5
:1032A0001B68DB681B0CC3F30B0313445A1CFB683D
:1032B0001B6819467B68DB010B4484331946FB69A4
:1032C00013434B60BB68DA68FB681B68DB68C3F3B9
:1032D0000A0313441B04FB61FB681B681A467B68E6
:1032E000DB01134484339B68FA68126811467A68DC
:1032F000D2010A44843203F470439360BB689A6835
:10330000FB681B68DB68C3F30A0313445A1CFB68A1
:103310001B6819467B68DB010B4484331946FB6943
:1033200013438B60FB681B681A467B68DB01134400
:1033300084331B69FA68126811467A68D2010A441C
:10334000843223F007031361FB681B681A467B680D
:10335000DB01134484331A46BB681B691361BB68E5
:1033600093F831301B02FB61BB6893F832301B04C9
:10337000BB61BB689B691B067B61FB681B681A46C7
:103380007B68DB01134484339B69FB681B681A4626
:103390007B68DB01134484331A4600239361BB68C6
:1033A00093F830301A46FB691A43BB691A43FB682D
:1033B0001B6819467B68DB010B44843319467B6923
:1033C00013438B61FB681B681A467B68DB0113445F
:1033D00084335B69FA68126811467A68D2010A443C
:1033E000843223F0FF035361FB681B681A467B6835
:1033F000DB01134484331A46BB685B695361FB6885
:103400001B681A467B68DB0113448433DA69FB6866
:103410001B6819467B68DB010B4484331946584B03
:103420001340CB61BB68DA69BB681B6AF96809683D
:1034300008467968C901014484311343CB61FB68B4
:103440001B681A467B68DB01134484339B6AFB6864
:103450001B681A467B68DB01134484331A46002339
:103460009362FB681B681A467B68DB011344843354
:103470001A46BB685B6A9362BB681B69002B02D16A
:103480000423FB611BE0BB681B69012B02D10323F2
:10349000FB6114E0BB681B69042B0BD0BB681B6984
:1034A000022B07D0BB681B69032B03D0BB681B69C9
:1034B000072B02D10223FB6101E00123FB61FB68C2
:1034C0001B681A467B68DB0113448433DB6AFA68A5
:1034D000126811467A68D2010A44843203F0E0236C
:1034E000D362BB689B6AFA6902FB03F31A04BB68E8
:1034F0005968BB681B68CB1AF96901FB03F30333F6
:10350000F968096808467968C901014484311343A0
:10351000CB62FB681B681A467B68DB01134484336B
:103520001A6BFB681B6819467B68DB010B4484330C
:103530001946144B13400B63FB681B681A467B68E3
:10354000DB01134484331A46BB68DB6A1363FB68F0
:103550001B681A467B68DB01134484331B68FA68D6
:10356000126811467A68D2010A44843243F001039A
:10357000136000BF2437BD465DF8047B704700BF71
:10358000F8F8FFFF00F8FFFF80B582B000AF124BE4
:103590001B6C114A43F0805313640F4B1B6C03F0F8
:1035A00080537B607B680C4B5B6C0B4A43F480431D
:1035B0005364094B5B6C03F480433B603B6800221F
:1035C0000021012000F06DFC012000F086FC00BF0E
:1035D0000837BD4680BD00BF0038024080B485B0CA
:1035E00000AF78607B681B680A4A93420BD10A4B94
:1035F0001B6B094A43F480531363074B1B6B03F4A3
:103600008053FB60FB6800BF1437BD465DF8047B48
:10361000704700BF003002400038024080B485B0DF
:1036200000AF78607B681B680A4A93420BD10A4B53
:103630001B6B094A43F400031363074B1B6B03F432
:103640000003FB60FB6800BF1437BD465DF8047BD8
:10365000704700BF00B002400038024080B483B021
:1036600000AF78607B681B68074A934205D1074B1F
:103670001B6F064A43F40043136700BF0C37BD4677
:103680005DF8047B704700BF00280040003802400E
:1036900080B58AB000AF786007F1140300221A6089
:1036A0005A609A60DA601A617B681B68B3F1804FD8
:1036B0002FD11A4B1B6C194A43F001031364174BAB
:1036C0001B6C03F001033B613B69144B1B6B134AFA
:1036D00043F001031363114B1B6B03F00103FB6009
:1036E000FB6801237B610223BB610023FB61002394
:1036F0003B6201237B6207F114031946084801F07D
:1037000039F9002200211C2000F0CBFB1C2000F026
:10371000E4FB00BF2837BD4680BD00BF0038024033
:103720000000024080B582B000AF786039607B68ED
:10373000002B01D1012325E07B6893F82C30DBB20C
:10374000002B06D17B68002283F82D20786800F0DA
:103750001DF87B68022283F82C207B681A687B683E
:1037600004331946104600F0ABF87B6818687B6894
:103770005B681A46396800F015F97B68012283F806
:103780002C20002318460837BD4680BD80B483B086
:1037900000AF786000BF0C37BD465DF8047B704712
:1037A00080B584B000AFF860B9607A60FB6893F8C8
:1037B0002C30DBB2022B01D1022318E0FB6802227D
:1037C00083F82C20FB681B687A68B968184600F0FB
:1037D00069F9BB681B68022B04D1FB68052283F8DA
:1037E0002C2003E0FB68012283F82C2000231846DC
:1037F0001037BD4680BD80B582B000AF78603960BB
:103800007B6893F82C30DBB2022B01D102230EE04F
:103810007B68022283F82C207B681B683968184675
:1038200000F061F97B68012283F82C200023184600
:103830000837BD4680BD80B400AFFEE780B400AF5E
:10384000FEE780B400AFFEE780B400AFFEE780B4CF
:1038500000AFFEE780B400AF00BFBD465DF8047B5B
:10386000704780B400AF00BFBD465DF8047B704771
:1038700080B400AF00BFBD465DF8047B704780B5E3
:1038800000AF00F0F1F900BF80BD80B500AF01F0DE
:1038900071FF00BF80BD000080B500AF024803F09B
:1038A000ADFA00BF80BD00BF2805002080B500AF85
:1038B0000248FFF7B3FB00BF80BD00BF78050020C2
:1038C00080B485B000AF786039600023FB600023CE
:1038D000BB603B681B68012B27D07B681B68FB60C3
:1038E000FA682F4B1340FB603B685A683B689B6843
:1038F0001A433B68DB681A433B681B691A433B6801
:103900005B691A433B689B691A433B68DB691A434E
:103910003B681B6A1A433B685B6A1343FA681343AC
:10392000FB607B68FA681A6032E07B681B68FB60AA
:10393000FB6823F4F843FB603B68DA693B681B6A69
:103940001A433B685B6A1343FA681343FB607B6866
:103950005B68BB60BA68124B1340BB603B685A6837
:103960003B689B681A433B68DB681A433B681B69EA
:103970001A433B685B691A433B689B691343BA6807
:103980001343BB607B68FA681A607B68BA685A6048
:10399000002318461437BD465DF8047B704700BF0E
:1039A0000080FFFF80B487B000AFF860B9607A6034
:1039B00000237B6100233B617B68012B2ED0FB68D9
:1039C0009B687B617B6903F070437B61BB681B680C
:1039D0005A1EBB685B68013B1B011A43BB689B68AE
:1039E000013B1B021A43BB68DB68013B1B031A4304
:1039F000BB681B69013B1B041A43BB685B69013B45
:103A00001B051A43BB689B69013B1B0613437A697C
:103A100013437B61FB687A699A6039E0FB689B68B5
:103A20007B617A691E4B13407B61BB68DB68013B9D
:103A30001A03BB685B69013B1B0513437A69134397
:103A40007B61FB68DB683B613B6903F070433B6172
:103A5000BB681B685A1EBB685B68013B1B011A43AD
:103A6000BB689B68013B1B021A43BB681B69013B97
:103A70001B041A43BB689B69013B1B0613433A694D
:103A800013433B61FB687A699A60FB683A69DA60C4
:103A9000002318461C37BD465DF8047B704700BF05
:103AA000FF0F0FFF80B487B000AFF860B9607A6095
:103AB00000237B61BB681A68BB685B681A43BB68FC
:103AC0009B68013B5B011A43BB68DB685B021343E5
:103AD0007B617A69FB681A61002318461C37BD4672
:103AE0005DF8047B704780B483B000AF78603960C4
:103AF0007B685A693B685B001A437B685A61002304
:103B000018460C37BD465DF8047B704780B586B01B
:103B100000AF7860144A154BD31A7B617B693B6117
:103B2000134B1B68002B02D1114B124A1A60104B29
:103B30001A687B6813443A699A4207D203F01AFE66
:103B400002460C2313604FF0FF3309E0084B1B685B
:103B5000FB60074B1A687B681344054A1360FB68D7
:103B600018461837BD4680BD00000520000400003F
:103B7000340400206006002080B400AF064BD3F868
:103B80008830054A43F47003C2F8883000BFBD4650
:103B90005DF8047B704700BF00ED00E0DFF834D033
:103BA0000D480E490E4A002302E0D458C450043395
:103BB000C4188C42F9D30B4A0B4C002301E013606C
:103BC0000432A242FBD3FFF7D7FF03F0D9FDFDF784
:103BD0002DFC70470000052000000020100200208E
:103BE000C0B50008100200205C060020FEE780B58A
:103BF00000AF032000F04AF9002000F005F8FFF7BD
:103C0000C3FC0023184680BD80B582B000AF786049
:103C1000124B1A68124B1B7819464FF47A73B3FB98
:103C2000F1F3B2FBF3F3184600F065F90346002BFD
:103C300001D001230EE07B680F2B0AD8002279689F
:103C40004FF0FF3000F02DF9064A7B681360002327
:103C500000E0012318460837BD4680BD340000202F
:103C60003C0000203800002080B400AF064B1B78D9
:103C70001A46064B1B681344044A136000BFBD4636
:103C80005DF8047B704700BF3C0000205406002014
:103C900080B400AF034B1B681846BD465DF8047B3B
:103CA000704700BF5406002080B584B000AF786034
:103CB000FFF7EEFFB8607B68FB60FB68B3F1FF3F86
:103CC00005D0094B1B781A46FB681344FB6000BF04
:103CD000FFF7DEFF0246BB68D31AFA689A42F7D8AC
:103CE00000BF1037BD4680BD3C00002080B485B0C9
:103CF00000AF78607B6803F00703FB600B4BDB6869
:103D0000BB60BA684FF6FF031340BB60FB681A0242
:103D1000BB681A43064B1343BB60044ABB68D360BD
:103D200000BF1437BD465DF8047B704700ED00E02E
:103D30000000FA0580B400AF044BDB681B0A03F0F7
:103D400007031846BD465DF8047B704700ED00E0B0
:103D500080B483B000AF0346FB7197F90730002BA6
:103D60000BDBFB7903F01F02074997F907305B096A
:103D7000012000FA02F241F8232000BF0C37BD46B3
:103D80005DF8047B704700BF00E100E080B483B0C1
:103D900000AF03463960FB7197F90730002B0ADB4F
:103DA0003B68DAB20C4997F907301201D2B20B44E2
:103DB00083F800230AE03B68DAB20849FB7903F094
:103DC0000F03043B1201D2B20B441A7600BF0C372A
:103DD000BD465DF8047B704700E100E000ED00E0C7
:103DE00080B489B000AFF860B9607A60FB6803F016
:103DF0000703FB61FB69C3F10703042B28BF0423FE
:103E0000BB61FB690433062B02D9FB69033B00E06D
:103E100000237B614FF0FF32BB6902FA03F3DA4300
:103E2000BB681A407B699A404FF0FF317B6901FA09
:103E300003F3D9437B680B40134318462437BD4630
:103E40005DF8047B7047000080B582B000AF7860F9
:103E50007B68013BB3F1807F01D301230FE00A4A65
:103E60007B68013B53600F214FF0FF30FFF78EFF5F
:103E7000054B00229A60044B07221A600023184663
:103E80000837BD4680BD00BF10E000E080B582B0BD
:103E900000AF78607868FFF729FF00BF0837BD469C
:103EA00080BD80B586B000AF0346B9607A60FB7311
:103EB00000237B61FFF73EFF78617A68B968786913
:103EC000FFF78EFF024697F90F3011461846FFF7AD
:103ED0005DFF00BF1837BD4680BD80B582B000AF22
:103EE0000346FB7197F907301846FFF731FF00BF13
:103EF0000837BD4680BD80B582B000AF7860786875
:103F0000FFF7A2FF034618460837BD4680BD0000F4
:103F100080B582B000AF78607B68002B01D10123AF
:103F200054E07B685B7FDBB2002B05D17B6800220D
:103F30001A777868FFF752FB7B6802225A777B6812
:103F40001B79002B0CD17B681B68224A5A617B6865
:103F50001B689A687B681B6822F018029A600CE064
:103F60007B6899687B68DB681A46786800F034F8EB
:103F70000346002B01D0012328E07B685B79002BEE
:103F800005D17B681B684FF0FF321A6104E07B6843
:103F90001B687A6812691A617B681B689B6823F04A
:103FA00060017B685A697B681B680A439A607B687A
:103FB0001B689B6823F080017B689A697B681B689B
:103FC0000A439A607B6801225A7700231846083713
:103FD000BD4680BDB71DC10480B487B000AFF86096
:103FE000B9607A600023FB751F233B6100BF3B690A
:103FF0005A1E3A61002B09D03B6903F01F03BA68CF
:1040000022FA03F303F00103002BF0D07B68182B96
:1040100046D801A252F823F0A7400008A1400008AA
:10402000A1400008A1400008A1400008A1400008EC
:10403000A1400008A140000895400008A1400008E8
:10404000A1400008A1400008A1400008A1400008CC
:10405000A1400008A140000889400008A1400008D4
:10406000A1400008A1400008A1400008A1400008AC
:10407000A1400008A14000087D4000083B69062BD4
:1040800013D90123FB7510E03B69072B0FD90123DE
:10409000FB750CE03B690F2B0BD90123FB7508E086
:1040A0000123FB7506E000BF04E000BF02E000BF93
:1040B00000E000BFFB7D002B0DD1FB681B68BA68D8
:1040C0005A61FB681B689B6823F01801FB681B683A
:1040D0007A680A439A60FB7D18461C37BD465DF836
:1040E000047B704780B586B000AF786000237B61A9
:1040F000FFF7CEFD38617B68002B01D1012399E0E9
:104100007B68002283F834207B68022283F8352004
:104110007B681B681A687B681B6822F001021A60C2
:104120000FE0FFF7B5FD02463B69D31A052B08D90E
:104130007B6820225A657B68032283F8352003239D
:1041400078E07B681B681B6803F00103002BE8D153
:104150007B681B681B687B617A69384B13407B6105
:104160007B685A687B689B681A437B68DB681A43E4
:104170007B681B691A437B685B691A437B689B6990
:104180001A437B68DB691A437B681B6A13437A69AD
:1041900013437B617B685B6A042B07D17B68DA6A17
:1041A0007B681B6B13437A6913437B617B681B68D5
:1041B0007A691A607B681B685B697B617B6923F0A5
:1041C00007037B617B685B6A7A6913437B617B6869
:1041D0005B6A042B17D17B689B6A7A6913437B6106
:1041E0007B68DB6A002B0ED0786800F0BDF80346D0
:1041F000002B08D07B6840225A657B68012283F837
:104200003520012316E07B681B687A695A6178685B
:1042100000F074F80346FB607B68DB6D3F229A4038
:10422000FB689A607B6800225A657B68012283F8EC
:104230003520002318461837BD4680BD3F8010F05A
:1042400080B584B000AF78607B68002B01D101237A
:1042500050E07B6893F83530DBB2022B01D10223AA
:1042600048E07B681B681A687B681B6822F00102C3
:104270001A607B681B6800221A607B681B6800223A
:104280005A607B681B6800229A607B681B6800226A
:10429000DA607B681B6800221A617B681B68212238
:1042A0005A61786800F02AF80346FB607B68DB6D92
:1042B0003F229A40FB689A607B680022DA637B6841
:1042C00000221A647B6800225A647B6800229A6488
:1042D0007B680022DA647B6800221A657B68002212
:1042E0005A657B68002283F835207B68002283F8BA
:1042F0003420002318461037BD4680BD80B485B0F9
:1043000000AF78607B681B68DBB2103B134AA2FBEE
:1043100003231B09FB60124AFB6813441B781A46EF
:104320007B68DA65FB68032B08D97B681B681A4633
:104330000C4B13401A1D7B689A6506E07B681B686E
:104340001A46084B13407A6893657B689B6D184644
:104350001437BD465DF8047B704700BFABAAAAAA1C
:104360004CB3000800FCFFFF80B485B000AF78605C
:104370000023FB737B689B6ABB607B689B69002B97
:104380001FD1BB68032B55D801A252F823F000BF00
:10439000A1430008B3430008A143000835440008C6
:1043A0007B68DB6A03F08073002B45D00123FB732D
:1043B00042E07B68DB6AB3F1C07F3FD10123FB732E
:1043C0003CE07B689B69B3F5005F21D1BB68032BA0
:1043D00036D801A252F823F0E9430008EF43000861
:1043E000E9430008014400080123FB732FE07B68C8
:1043F000DB6A03F08073002B24D00123FB7321E0E0
:104400007B68DB6AB3F1C07F1ED10123FB731BE025
:10441000BB68022B02D9032B03D018E00123FB73E6
:1044200015E07B68DB6A03F08073002B0ED001235C
:10443000FB730BE000BF0AE000BF08E000BF06E02E
:1044400000BF04E000BF02E000BF00E000BFFB7B54
:1044500018461437BD465DF8047B704780B582B0BE
:1044600000AF78607B68002B01D1012339E07B68C5
:1044700093F83930DBB2002B06D17B68002283F839
:1044800038207868FFF7CAF87B68022283F8392061
:104490007B681B681B6823F440317B685A687B6823
:1044A0001B680A431A607B681B685B6B23F007017B
:1044B0007B689A687B681B680A435A637B681B6841
:1044C0001A6C0A4B13407A68D1687A6812680B43F9
:1044D00013647B680022DA637B68012283F8392049
:1044E000002318460837BD4680BD00BF00C0FFFF4F
:1044F00080B586B002AFF860B9607A603B60FB6857
:1045000093F83830012B01D1022318E0FB68012217
:1045100083F83820FB68022283F83920BB690093B6
:104520003B687A68B968F86800F088F9FB681B682E
:104530001A68FB681B6842F001021A6000231846E3
:104540001037BD4680BD80B586B000AF7860396059
:104550000023FB607B681B681B6803F00103002BD2
:1045600056D0FFF795FB78614BE07B681B685B6872
:10457000FB60FB6803F02103002B23D0FB6803F0F2
:104580002003002B05D07B68DB6B43F002027B68C5
:10459000DA63FB6803F00103002B05D07B68DB6B5B
:1045A00043F001027B68DA637B681B6821229A6012
:1045B0007B68042283F839207B68002283F8382046
:1045C0000123A5E03B68B3F1FF3F1AD0FFF760FB82
:1045D00002467B69D31A3A689A4202D33B68002BA1
:1045E0000FD17B68DB6B43F020027B68DA637B686A
:1045F000032283F839207B68002283F838200323C4
:1046000086E07B681B685B6803F00203002BACD07C
:104610007B681B68DB6903F020033B617B681B68D8
:104620005B6A03F020033A6913433B613B69002B4B
:1046300061D0FFF72DFB786156E07B681B685B68F3
:10464000FB60FB6803F02903002B2ED0FB6803F00E
:104650000803002B05D07B68DB6B43F004027B680A
:10466000DA63FB6803F02003002B05D07B68DB6B6B
:1046700043F002027B68DA63FB6803F00103002B5E
:1046800005D07B68DB6B43F001027B68DA637B68F3
:104690001B6829229A607B68042283F839207B6892
:1046A000002283F83820012332E03B68B3F1FF3F5A
:1046B0001AD0FFF7EDFA02467B69D31A3A689A429C
:1046C00002D33B68002B0FD17B68DB6B43F02002E9
:1046D0007B68DA637B68032283F839207B680022D9
:1046E00083F83820032313E07B681B685B6803F0C2
:1046F0001003002BA1D07B681B6812229A607B6894
:10470000012283F839207B68002283F838200023B7
:1047100018461837BD4680BD80B487B000AF7860BA
:1047200039607B685B68B3F5403F7B6893F838304D
:10473000012B01D1022379E07B68012283F8382024
:104740007B68022283F839203B681B0118337A68A2
:1047500013443B613B695A683B699B681B041343E4
:104760007B61354BFB603B695B680A2B03D03B697F
:104770005B68092B07D13B69DB6803F07F437A69EB
:1047800013437B6105E03B69DB681B067A691343D1
:104790007B613B68002B20D17B681B685A6AFB68F1
:1047A000DB4302EA03017B681B687A690A435A62A9
:1047B0007B681B683A6912689A613B695B680A2BDF
:1047C00003D03B695B68092B27D13B69DA687B68BA
:1047D0001B6822F07F429A621FE07B681B68DA69DF
:1047E000FB68DB4302EA03017B681B687A690A43C2
:1047F000DA617B681B683A6912681A613B695B6819
:104800000A2B03D03B695B68092B06D13B69DA6848
:104810007B681B6822F07F421A627B68012283F862
:1048200039207B68002283F83820002318461C3783
:10483000BD465DF8047B70470F0003FF80B48BB06A
:1048400000AFF860B9607A603B60FB681B685B6C26
:1048500003F040413B681A043B6B1A43FB681B683A
:104860000A435A64FB681B687A68DA63FB685B6812
:10487000B3F5403F74D1BB6803F07F433B62BB6834
:1048800003F47F03FB61BB6803F47F43BB61BB6838
:10489000DBB27B61FB689B68002B08D1BA69FB69BE
:1048A0001A433B6A13437A6913437B6253E0FB6804
:1048B0009B68012B06D1BA69FB6913437A691343DC
:1048C0007B6248E0FB689B68022B11D1FB69DB0C23
:1048D000FB61BB699B0ABB617B69DB087B61BB69D0
:1048E0005A01FB69DB0213437A6913437B6232E0AE
:1048F000FB689B68032B17D13B6ADB0F3B62FB69AC
:10490000DB0CFB61BB69DB0ABB617B69DB087B619C
:10491000BB695A01FB699B021A433B6ADB031343E1
:104920007A6913437B6216E03B6A1B0F3B62FB69AB
:104930001B0DFB61BB691B0BBB617B691B097B61A9
:10494000BB691A01FB691B021A433B6A1B03134331
:104950007A6913437B62FB681B687A6A9A6303E097
:10496000FB681B68BA68DA6000BF2C37BD465DF88B
:10497000047B704780B489B000AF78603960002351
:10498000FB6100237B6100233B610023BB610023AB
:10499000FB6175E10122FB6902FA03F37B613B686D
:1049A0001B687A6913403B613A697B699A4240F01F
:1049B00064813B685B68012B0BD03B685B68022B12
:1049C00007D03B685B68112B03D03B685B68122BF8
:1049D00030D17B689B68BB61FB695B00032202FAF4
:1049E00003F3DB43BA691340BB613B68DA68FB69D8
:1049F0005B0002FA03F3BA691343BB617B68BA69CF
:104A00009A607B685B68BB610122FB6902FA03F371
:104A1000DB43BA691340BB613B685B681B0903F069
:104A20000102FB6902FA03F3BA691343BB617B68B5
:104A3000BA695A607B68DB68BB61FB695B00032273
:104A400002FA03F3DB43BA691340BB613B689A681F
:104A5000FB695B0002FA03F3BA691343BB617B682D
:104A6000BA69DA603B685B68022B03D03B685B681D
:104A7000122B23D1FB69DA087B68083253F8223005
:104A8000BB61FB6903F007039B000F2202FA03F3EB
:104A9000DB43BA691340BB613B681A69FB6903F0E9
:104AA00007039B0002FA03F3BA691343BB61FB6976
:104AB000DA087B680832B96943F822107B681B6802
:104AC000BB61FB695B00032202FA03F3DB43BA69B3
:104AD0001340BB613B685B6803F00302FB695B004A
:104AE00002FA03F3BA691343BB617B68BA691A60BF
:104AF0003B685B6803F08053002B00F0BE80654B81
:104B00005B6C644A43F480435364624B5B6C03F414
:104B10008043FB60FB68604AFB699B08023352F8E4
:104B20002330BB61FB6903F003039B000F2202FAF1
:104B300003F3DB43BA691340BB617B68574A934276
:104B400037D07B68564A934231D07B68554A9342AE
:104B50002BD07B68544A934225D07B68534A9342BA
:104B60001FD07B68524A934219D07B68514A9342C6
:104B700013D07B68504A93420DD07B684F4A9342D2
:104B800007D07B684E4A934201D1092312E00A23E1
:104B900010E008230EE007230CE006230AE00523BB
:104BA00008E0042306E0032304E0022302E00123DB
:104BB00000E00023FA6902F0030292009340BA6910
:104BC0001343BB613449FB699B080233BA6941F85E
:104BD00023203C4B1B68BB613B69DB43BA69134034
:104BE000BB613B685B6803F48033002B03D0BA6978
:104BF0003B691343BB61334ABB691360314B5B684C
:104C0000BB613B69DB43BA691340BB613B685B68CE
:104C100003F40033002B03D0BA693B691343BB6133
:104C2000284ABB695360274B9B68BB613B69DB43E8
:104C3000BA691340BB613B685B6803F48013002BC7
:104C400003D0BA693B691343BB611E4ABB699360D9
:104C50001C4BDB68BB613B69DB43BA691340BB613A
:104C60003B685B6803F40013002B03D0BA693B690F
:104C70001343BB61134ABB69D360FB690133FB611A
:104C8000FB690F2B7FF686AE00BF2437BD465DF86B
:104C9000047B7047003802400038014000000240A9
:104CA0000004024000080240000C024000100240D4
:104CB0000014024000180240001C02400020024084
:104CC00000240240003C014080B483B000AF786013
:104CD0000B467B8013467B707B78002B03D07A8851
:104CE0007B689A6103E07B881A047B689A6100BF45
:104CF0000C37BD465DF8047B7047000080B582B07C
:104D000000AF78607B68002B01D101237FE07B68D6
:104D100093F84130DBB2002B06D17B68002283F888
:104D20004020786800F0A9F87B68242283F84120AD
:104D30007B681B681A687B681B6822F001021A6096
:104D40007B685A687B681B6822F070621A617B6816
:104D50001B689A687B681B6822F400429A607B6833
:104D6000DB68012B07D17B689A687B681B6842F47B
:104D700000429A6006E07B689A687B681B6842F490
:104D800004429A607B68DB68022B04D17B681B6855
:104D90004FF400625A607B681B6859687B681A6828
:104DA0001D4B0B4353607B681B68DA687B681B688C
:104DB00022F40042DA607B681A697B685B6942EA28
:104DC00003017B689B691A027B681B680A43DA60EF
:104DD0007B68D9697B681A6A7B681B680A431A601A
:104DE0007B681B681A687B681B6842F001021A60C6
:104DF0007B6800225A647B68202283F841207B680C
:104E000000221A637B68002283F8422000231846A0
:104E10000837BD4680BD00BF0080000280B582B06B
:104E200000AF78607B68002B01D1012321E07B6813
:104E3000242283F841207B681B681A687B681B6802
:104E400022F001021A60786800F021F87B680022E5
:104E50005A647B68002283F841207B6800221A6331
:104E60007B68002283F842207B68002283F8402080
:104E7000002318460837BD4680BD80B483B000AF1C
:104E8000786000BF0C37BD465DF8047B704780B486
:104E900083B000AF786000BF0C37BD465DF8047B7F
:104EA0007047000080B588B002AFF8600846114630
:104EB0001A4603467B810B463B811346FB80FB6809
:104EC00093F84130DBB2202B40F0F9803B6A002B95
:104ED00002D0BB8C002B05D1FB684FF400725A64E2
:104EE0000123EDE0FB6893F84030012B01D1022350
:104EF000E6E0FB68012283F84020FEF7C9FE7861F6
:104F00007B690093192301224FF40041F86800F0F7
:104F1000D1FA0346002B01D00123D1E0FB68212206
:104F200083F84120FB68402283F84220FB6800227E
:104F30005A64FB683A6A5A62FB68BA8C5A85FB6805
:104F400000225A63F8883A8979897B690193BB6AA0
:104F500000930346F86800F0E1F90346002B05D002
:104F6000FB68002283F840200123A9E0FB685B8DE9
:104F70009BB2FF2B0ED9FB68FF221A85FB681B8DA5
:104F8000DAB27989002300934FF08073F86800F05B
:104F9000B3FB0FE0FB685B8D9AB2FB681A85FB6878
:104FA0001B8DDAB27989002300934FF00073F86803
:104FB00000F0A2FB7A69B96AF86800F0BBFA034610
:104FC000002B01D001237BE0FB685B6A1A78FB6849
:104FD0001B689A62FB685B6A5A1CFB685A62FB6832
:104FE0005B8D9BB2013B9AB2FB685A85FB681B8DB7
:104FF000013B9AB2FB681A85FB685B8D9BB2002B64
:1050000034D0FB681B8D002B30D17B690093BB6AC9
:1050100000228021F86800F04DFA0346002B01D0F1
:1050200001234DE0FB685B8D9BB2FF2B0ED9FB6823
:10503000FF221A85FB681B8DDAB279890023009361
:105040004FF08073F86800F057FB0FE0FB685B8D52
:105050009AB2FB681A85FB681B8DDAB27989002346
:1050600000934FF00073F86800F046FBFB685B8D1F
:105070009BB2002B9ED17A69B96AF86800F09AFA5F
:105080000346002B01D001231AE0FB681B68202295
:10509000DA61FB681B685968FB681A680A4B0B40A9
:1050A0005360FB68202283F84120FB68002283F8CC
:1050B0004220FB68002283F84020002300E0022306
:1050C00018461837BD4680BD00E800FE80B588B0A0
:1050D00002AFF860084611461A4603467B810B462C
:1050E0003B811346FB80FB6893F84130DBB2202BF9
:1050F00040F0FD803B6A002B02D0BB8C002B05D119
:10510000FB684FF400725A640123F1E0FB6893F8E6
:105110004030012B01D10223EAE0FB68012283F831
:105120004020FEF7B5FD78617B69009319230122C9
:105130004FF40041F86800F0BDF90346002B01D0A0
:105140000123D5E0FB68222283F84120FB6840223E
:1051500083F84220FB6800225A64FB683A6A5A626C
:10516000FB68BA8C5A85FB6800225A63F8883A8932
:1051700079897B690193BB6A00930346F86800F064
:1051800021F90346002B05D0FB68002283F840205C
:105190000123ADE0FB685B8D9BB2FF2B0ED9FB6852
:1051A000FF221A85FB681B8DDAB27989524B009376
:1051B0004FF08073F86800F09FFA0FE0FB685B8D9A
:1051C0009AB2FB681A85FB681B8DDAB279894A4B63
:1051D00000934FF00073F86800F08EFA7B6900933B
:1051E000BB6A00220421F86800F064F90346002B32
:1051F00001D001237CE0FB681B685A6AFB685B6A8C
:10520000D2B21A70FB685B6A5A1CFB685A62FB6870
:105210001B8D013B9AB2FB681A85FB685B8D9BB2C4
:10522000013B9AB2FB685A85FB685B8D9BB2002BF1
:1052300034D0FB681B8D002B30D17B690093BB6A97
:1052400000228021F86800F035F90346002B01D0D8
:1052500001234DE0FB685B8D9BB2FF2B0ED9FB68F1
:10526000FF221A85FB681B8DDAB27989002300932F
:105270004FF08073F86800F03FFA0FE0FB685B8D39
:105280009AB2FB681A85FB681B8DDAB27989002314
:1052900000934FF00073F86800F02EFAFB685B8D06
:1052A0009BB2002B9AD17A69B96AF86800F082F94A
:1052B0000346002B01D001231AE0FB681B68202263
:1052C000DA61FB681B685968FB681A680B4B0B4076
:1052D0005360FB68202283F84120FB68002283F89A
:1052E0004220FB68002283F84020002300E00223D4
:1052F00018461837BD4680BD0024008000E800FE37
:1053000080B483B000AF78607B6893F84130DBB243
:1053100018460C37BD465DF8047B704780B586B0F3
:1053200002AFF860084611461A4603467B810B46D9
:105330003B811346FB80FB88DAB27989204B0093CE
:105340004FF08073F86800F0D7F9FA69B969F86826
:1053500000F0F0F80346002B01D001232CE0FB887D
:10536000012B05D13B89DAB2FB681B689A6215E014
:105370003B891B0A9BB2DAB2FB681B689A62FA6926
:10538000B969F86800F0D6F80346002B01D0012374
:1053900012E03B89DAB2FB681B689A62FB690093F2
:1053A000BB6900228021F86800F084F80346002BD6
:1053B00001D0012300E0002318461037BD4680BD10
:1053C0000020008080B586B002AFF8600846114624
:1053D0001A4603467B810B463B811346FB80FB88C4
:1053E000DAB27989204B00930023F86800F084F941
:1053F000FA69B969F86800F09DF80346002B01D0FE
:1054000001232CE0FB88012B05D13B89DAB2FB6834
:105410001B689A6215E03B891B0A9BB2DAB2FB68F3
:105420001B689A62FA69B969F86800F083F8034664
:10543000002B01D0012312E03B89DAB2FB681B6824
:105440009A62FB690093BB6900224021F86800F072
:1054500031F80346002B01D0012300E00023184659
:105460001037BD4680BD00BF0020008080B483B0EF
:1054700000AF78607B681B689B6903F00203022B16
:1054800003D17B681B6800229A627B681B689B695A
:1054900003F00103012B07D07B681B689A697B68C6
:1054A0001B6842F001029A6100BF0C37BD465DF8EF
:1054B000047B704780B584B000AFF860B9603B6092
:1054C0001346FB7122E03B68B3F1FF3F1ED0FEF7AD
:1054D000DFFB0246BB69D31A3A689A4202D33B68A3
:1054E000002B13D1FB685B6C43F02002FB685A640D
:1054F000FB68202283F84120FB68002283F84220C9
:10550000FB68002283F8402001230FE0FB681B6842
:105510009A69BB681340BA689A420CBF0123002302
:10552000DBB21A46FB799A42CDD0002318461037D9
:10553000BD4680BD80B584B000AFF860B9607A60C8
:105540002CE07A68B968F86800F070F80346002B20
:1055500001D001232AE0BB68B3F1FF3F1ED0FEF764
:1055600097FB02467B68D31ABA689A4202D3BB689B
:10557000002B13D1FB685B6C43F02002FB685A647C
:10558000FB68202283F84120FB68002283F8422038
:10559000FB68002283F84020012307E0FB681B68BA
:1055A0009B6903F00203022BCBD10023184610376E
:1055B000BD4680BD80B584B000AFF860B9607A6048
:1055C00028E07A68B968F86800F030F80346002BE4
:1055D00001D0012326E0FEF75BFB02467B68D31A6D
:1055E000BA689A4202D3BB68002B13D1FB685B6C8C
:1055F00043F02002FB685A64FB68202283F84120B4
:10560000FB68002283F84220FB68002283F84020D8
:10561000012307E0FB681B689B6903F02003202B34
:10562000CFD1002318461037BD4680BD80B584B069
:1056300000AFF860B9607A60FB681B689B6903F093
:105640001003102B51D122E0BB68B3F1FF3F1ED0F5
:10565000FEF71EFB02467B68D31ABA689A4202D351
:10566000BB68002B13D1FB685B6C43F02002FB6826
:105670005A64FB68202283F84120FB68002283F8EB
:105680004220FB68002283F8402001232EE0FB68C3
:105690001B689B6903F02003202BD5D1FB681B6896
:1056A0001022DA61FB681B682022DA61F868FFF7D4
:1056B000DDFEFB681B685968FB681A680D4B0B40E0
:1056C0005360FB685B6C43F00402FB685A64FB6840
:1056D000202283F84120FB68002283F84220FB68E7
:1056E000002283F84020012300E0002318461037F1
:1056F000BD4680BD00E800FE80B485B000AFF86014
:105700007B600B467B8113467B72FB681B685A6883
:10571000BB695B0D03F480610D4B0B43DB4302EA75
:1057200003017B89C3F309027B7A1B0403F47F0323
:105730001A437B681A43BB691A43FB681B680A4318
:105740005A6000BF1437BD465DF8047B704700BF48
:10575000FF63FF0380B400AF054B1B68044A43F4AA
:105760008073136000BFBD465DF8047B704700BFC7
:105770000070004080B500AF064B5B6903F48033D6
:10578000002B05D000F008F8024B4FF480325A612C
:1057900000BF80BD003C014080B400AF00BFBD46EB
:1057A0005DF8047B7047000080B582B000AF002335
:1057B0007B60234B1B6C224A43F080531364204BC5
:1057C0001B6C03F080533B603B681E4B1B681D4AFB
:1057D00043F480331360FEF75BFA786009E0FEF76C
:1057E00057FA02467B68D31AB3F57A7F01D90323AF
:1057F00022E0144B5B6803F48033B3F5803FEED1B5
:10580000104B1B680F4A43F400331360FEF740FA55
:10581000786009E0FEF73CFA02467B68D31AB3F5DC
:105820007A7F01D9032307E0064B5B6803F400335A
:10583000B3F5003FEED1002318460837BD4680BDC2
:10584000003802400070004080B586B000AF78603C
:105850000023FB757B68002B01D1012391E27B685B
:105860001B6803F00103002B00F08780964B9B68B8
:1058700003F00C03042B0CD0934B9B6803F00C0338
:10588000082B12D1904B5B6803F48003B3F5800FB3
:105890000BD18D4B1B6803F40033002B6CD07B685D
:1058A0005B68002B68D101236BE27B685B68B3F512
:1058B000803F06D1844B1B68834A43F480331360D6
:1058C0002EE07B685B68002B0CD17F4B1B687E4A07
:1058D00023F4803313607C4B1B687B4A23F48023C2
:1058E00013601DE07B685B68B3F5A02F0CD1764B8D
:1058F0001B68754A43F480231360734B1B68724A1C
:1059000043F4803313600BE06F4B1B686E4A23F443
:10591000803313606C4B1B686B4A23F48023136045
:105920007B685B68002B13D0FEF7B2F9386108E0A2
:10593000FEF7AEF902463B69D31A642B01D9032363
:105940001FE2614B1B6803F40033002BF0D014E01E
:10595000FEF79EF9386108E0FEF79AF902463B69C6
:10596000D31A642B01D903230BE2574B1B6803F4B2
:105970000033002BF0D100E000BF7B681B6803F010
:105980000203002B69D0504B9B6803F00C03002BE3
:105990000BD04D4B9B6803F00C03082B1CD14A4BDA
:1059A0005B6803F48003002B16D1474B1B6803F0A0
:1059B0000203002B05D07B68DB68012B01D001239B
:1059C000DFE1414B1B6823F0F8027B681B69DB00B9
:1059D0003D4913430B6040E07B68DB68002B23D01C
:1059E000394B1B68384A43F001031360FEF750F946
:1059F000386108E0FEF74CF902463B69D31A022BE6
:105A000001D90323BDE1304B1B6803F00203002BD7
:105A1000F0D02D4B1B6823F0F8027B681B69DB007C
:105A2000294913430B6018E0274B1B68264A23F0D3
:105A300001031360FEF72CF9386108E0FEF728F93E
:105A400002463B69D31A022B01D9032399E11E4B6D
:105A50001B6803F00203002BF0D17B681B6803F086
:105A60000803002B38D07B685B69002B19D0164BDC
:105A70005B6F154A43F001035367FEF709F938617C
:105A800008E0FEF705F902463B69D31A022B01D95B
:105A9000032376E10C4B5B6F03F00203002BF0D085
:105AA0001AE0094B5B6F084A23F001035367FEF7C6
:105AB000EFF838610AE0FEF7EBF802463B69D31ACB
:105AC000022B03D903235CE100380240914B5B6F4A
:105AD00003F00203002BEED17B681B6803F0040384
