:020000040800F2
:1000000000000520D1220008E9210008EB210008AA
:10001000ED210008EF210008F12100080000000098
:10002000000000000000000000000000D1B900083E
:10003000F32100080000000071BA0008D5BA0008DA
:100040002123000821230008212300082123000880
:100050002123000821230008212300082123000870
:100060002123000821230008212300082123000860
:100070002123000821230008212300082123000850
:100080002123000821230008212300082123000840
:100090002123000821230008212300082123000830
:1000A0002123000821230008212300082123000820
:1000B00021230008F521000821230008212300083E
:1000C0002123000821230008212300082123000800
:1000D00021230008212300082123000821230008F0
:1000E00021230008212300082123000821230008E0
:1000F00021230008212300082123000821230008D0
:1001000021230008212300082123000821230008BF
:1001100021230008212300080522000821230008CC
:10012000212300082123000821230008212300089F
:10013000212300082123000821230008212300088F
:10014000212300082123000821230008152200088C
:10015000212300082123000821230008212300086F
:10016000212300082123000821230008212300085F
:10017000212300082123000821230008000000009B
:10018000212300082123000821230008212300083F
:10019000212300082123000821230008212300082F
:1001A0002522000821230008352200082123000809
:1001B000212300082123000821230008212300080F
:0801C00021230008212300089F
:1001D00010B5054C237833B9044B13B10448AFF381
:1001E00000800123237010BD740200200000000075
:1001F0001CBA010808B5034B1BB103490348AFF310
:10020000008008BD00000000780200201CBA010830
:1002100053B94AB9002908BF00281CBF4FF0FF316D
:100220004FF0FF3000F072B9ADF1080C6DE904CE6B
:1002300000F006F8DDF804E0DDE9022304B07047C1
:100240002DE9F047089E04468846002B4BD18A4290
:10025000154667D9B2FA82F24AB1C2F1200701FA13
:1002600002F320FA07F7954047EA030894404FEA63
:10027000154E230CB8FBFEF71FFA85FC0EFB178802
:1002800043EA084307FB0CF1994209D9EB1807F13F
:10029000FF3080F01B81994240F21881023F2B44CD
:1002A0005B1AA4B2B3FBFEF00EFB103344EA034426
:1002B00000FB0CFCA44509D92C1900F1FF3380F098
:1002C0000781A44540F2048102382C4440EA0740EB
:1002D000A4EB0C0400271EB1D4400023C6E9004360
:1002E0003946BDE8F0878B4209D9002E00F0EB803B
:1002F0000027C6E9000138463946BDE8F087B3FA61
:1003000083F7002F47D18B4202D3824200F2FA805A
:10031000841A61EB030301209846002EE0D0C6E961
:100320000048DDE702B9FFDEB2FA82F2002A40F0AF
:100330008F80491B4FEA154E1FFA85F80127B1FB44
:10034000FEFC230C0EFB1C1143EA014308FB0CF1DD
:10035000994207D9EB180CF1FF3002D2994200F212
:10036000CD808446591AA3B2B1FBFEF00EFB1014E7
:1003700043EA044408FB00F8A04507D92C1900F112
:10038000FF3302D2A04500F2B6801846A4EB080461
:1003900040EA0C409FE7C7F1200CBB4022FA0CFE5C
:1003A0004EEA030E01FA07F420FA0CF521FA0CF3D9
:1003B0004FEA1E482543B3FBF8F92C0C08FB193310
:1003C0001FFA8EFA44EA034309FB0AF49C4202FA3C
:1003D00007F200FA07F10BD91EEB030309F1FF3016
:1003E00080F087809C4240F28480A9F10209734426
:1003F0001B1BADB2B3FBF8F008FB103345EA034416
:1004000000FB0AFAA24508D91EEB040400F1FF33F1
:100410006BD2A24569D90238744440EA0940A0FB76
:100420000289A4EB0A044C45C2464B4654D351D032
:10043000002E69D0B1EB0A0564EB030404FA0CFC4E
:10044000FD40FC404CEA0505C6E90054002747E79B
:10045000C2F1200320FA03F7954001FA02F021FAD5
:1004600003F34FEA154E3843010CB3FBFEF71FFAB6
:1004700085F80EFB173341EA034107FB08F38B4273
:1004800004FA02F407D9691807F1FF3C2FD28B4216
:100490002DD9023F2944CB1A81B2B3FBFEF00EFBEB
:1004A000103341EA034100FB08F38B4207D9691876
:1004B00000F1FF3C17D28B4215D902382944C91AE2
:1004C00040EA07473BE73746304609E70746E7E695
:1004D0001846FBE64145ABD2B8EB020A69EB0E02C7
:1004E00001381346A4E76046E9E7184695E76746F2
:1004F000D1E781467CE702382C4447E7ACF1020C97
:100500002B442FE7384608E73746E9E6704700BF37
:10051000034B0360034B0B604FF4A0631360704701
:10052000BC190020BC0500207047002070477047B0
:10053000014B1878704700BF141A002008B5FFF768
:10054000F7FF00B108BD01F037F8024B01221A7025
:10055000F8E700BF141A002008B5C82001F05CF8C5
:10056000FFF7ECFF08BD70B582B0064600248DF899
:100570000740FFF7E3FF254601E00134E4B285F0D0
:100580000103022C8CBF002303F0010363B1A821F7
:10059000F0B201F02BF88DF807009DF80730DBB2C0
:1005A000512BEAD10125E8E79DF8070002B070BDA4
:1005B00000B583B000238DF807300221C0B201F0EE
:1005C00015F88DF807009DF8073003F00F038DF83C
:1005D00007309DF80730DBB2052B02D900238DF8D8
:1005E00007309DF80720044B5A7000229A709DF83E
:1005F000070003B05DF804FB141A00202DE9F04752
:1006000082B000238DF807304F4DAB786C78A34251
:1006100080F09680092B06D8DFE803F0530B131BFC
:10062000232B333B434B4FF00008C146C2464346A1
:100630004EE04FF00B084FF00C094FF0090A0A2367
:1006400046E04FF011084FF012094FF00F0A102347
:100650003EE04FF017084FF018094FF0150A162327
:1006600036E04FF01D084FF01E094FF01B0A1C2307
:100670002EE04FF023084FF024094FF0210A2223E7
:1006800026E04FF029084FF02A094FF0270A2823C7
:100690001EE04FF02F084FF030094FF02D0A2E23A7
:1006A00016E04FF035084FF036094FF0330A342387
:1006B0000EE04FF03B084FF03C094FF0390A3A2367
:1006C00006E04FF005084FF006094FF0030A042337
:1006D00016460F46C4B21946204600F087FF8DF833
:1006E00007009DF80730194D2B805146204600F039
:1006F0007DFF8DF807009DF807301B0203F470633F
:100700002A8813432B803B804946204600F06EFF29
:100710008DF807009DF807302B804146204600F0F9
:1007200065FF8DF807009DF807301B0203F4706326
:100730002A8813432B803380034A937801339370C4
:1007400002B0BDE8F08700BF141A0020101A002084
:1007500008B50122A421C0B200F036FF08BD08B5DB
:100760000022A421C0B200F02FFF08BD08B5FFF79A
:10077000F6FF08BD10B582B00C4600238DF8073097
:100780000121C0B200F032FF8DF807009DF807305C
:10079000236002B010BD00002DE9F04182B00024BA
:1007A0008DF80740334C64788C425FD9092906D80C
:1007B000DFE801F036090E13181D22272C3100271F
:1007C000B846394630E00E274FF00D0809212BE0DE
:1007D00014274FF013080F2126E01A274FF01908AD
:1007E000152121E020274FF01F081B211CE02627A0
:1007F0004FF02508212117E02C274FF02B08272147
:1008000012E032274FF031082D210DE038274FF04C
:100810003708332108E03E274FF03D08392103E037
:1008200008274FF0070803211D461646C4B220468C
:1008300000F0DCFE8DF807009DF807309B09089A50
:1008400013604146204600F0D1FE8DF807009DF868
:10085000073033603946204600F0C8FE8DF80700A7
:100860009DF80720120902F004022A6002B0BDE8D8
:10087000F08100BF141A0020054B064A1A600022BE
:100880005A609A60DA601A615A619A61704700BFD3
:10089000C8140220002C01402DE9F04F91B0002433
:1008A0000B940C940D940E940F94AA4B1A6B42F077
:1008B00010021A631A6B02F010020092009A1A6B6F
:1008C00042F040021A631A6B02F040020192019A50
:1008D0001A6B42F002021A631A6B02F002020292D1
:1008E000029A1A6B42F008021A631A6B02F00802AD
:1008F0000392039A1A6B42F004021A631A6B02F015
:1009000004020492049A1A6B42F001021A631A6BF1
:1009100002F001020592059A1A6B42F400721A6302
:100920001A6B02F400720692069A1A6B42F48072F5
:100930001A631A6B02F480720792079A1A6B42F4D8
:1009400080621A631A6B02F480620892089A1A6B2A
:1009500042F020021A631A6B02F020020992099AEF
:100960001A6B42F080021A631B6B03F080030A9338
:100970000A9B01222021784802F0DDFA22460E214E
:10098000764802F0D8FA01220821754802F0D3FA1D
:1009900001224FF48051714802F0CDFA22464FF403
:1009A0000051704802F0C7FA2246C8216E4802F092
:1009B000C2FA4FF0080BCDF82CB00C940D940BA993
:1009C0006A4802F023F94FF4D0430B9302250C95AB
:1009D0000D9403260E964FF00B09CDF83C900BA911
:1009E000614802F013F943F623430B930C950D94E1
:1009F0000E964FF00A08CDF83C800BA95C4802F037
:100A000005F94FF480530B930C940D940BA959489E
:100A100002F0FCF840230B93574B0C930D940BA959
:100A20004D4802F0F3F820230B9301270C970D9407
:100A30000E940BA9484802F0E9F841F20E030B931B
:100A40000C970D940E940BA9444802F0DFF84FF474
:100A5000005ACDF82CA00C940D940BA9474802F035
:100A6000D5F8CDF82CB00C970D940E940BA93C48FA
:100A700002F0CCF84FF0100BCDF82CB00C940D9484
:100A80000BA9354802F0C2F848F204030B930C940A
:100A90000D940BA9334802F0B9F8CDF82CA00C97AF
:100AA0000D940E940BA92F4802F0B0F8CDF82CA0AD
:100AB000314B0C930D940BA9284802F0A7F8CDF800
:100AC0002CB00C950D940E96CDF83C800BA92548C2
:100AD00002F09CF8C8230B930C970D940E940BA96D
:100AE000214802F093F805270B970C950D940E966C
:100AF000CDF83C800BA9214802F088F832230B93F3
:100B00000C950D940E96CDF83C900BA91B4802F065
:100B10007DF804230B930C940D940BA9124802F05A
:100B200075F886230B930C950D940E96CDF83C909A
:100B3000DFF84C900BA9484602F068F828230B9385
:100B40000C950D940E96CDF83C800BA9484602F00A
:100B50005DF817E000380240000C0240002002401F
:100B600000280240001C0240001802400010024011
:100B7000000402400024024000001210000802405D
:100B8000000002404FF440430B930C950D940E94DB
:100B90000F970BA9024802F039F811B0BDE8F08FA9
:100BA0000004024070B584B00025009501950295BF
:100BB0000395104C104B23604FF480336360A560A5
:100BC0002561A56184F82050E5620C4BA362E560C5
:100BD0000126E66184F830506661204601F06CFC25
:100BE0000095019602956946204601F091FC04B0FB
:100BF00070BD00BFCC150220002201400100000F93
:100C000008B50648064B0360002303714371436136
:100C100083610123036201F0B5FD08BDA414022025
:100C20000030024008B50948094B036000234360C7
:100C30008360C360036143618361036243628362D3
:100C4000C362036301F014FE08BD00BF1416022046
:100C50000000055038B50D4C0D4B23600D4B636003
:100C60000025A5600123E36025616561A561E5615B
:100C70002562204603F084F82946204603F0ADFAA9
:100C80002946204603F0D7FA38BD00BF5814022089
:100C900000540040FFEAC00038B50D4C0D4B2360F6
:100CA0000D4B63600025A5600123E360256165614C
:100CB000A561E5612562204603F062F829462046D9
:100CC00003F08BFA2946204603F0B5FA38BD00BF81
:100CD000FC120220005C0040FFEAC00008B5084892
:100CE000084B0360FF234360012282600023C3603E
:100CF000026143618361C361036203F051FE08BD79
:100D000048180220001000A070B592B000240C9486
:100D10000D940E940F94109411940B942C22214650
:100D200068461AF0B8FD264D264B2B606C607F2379
:100D3000AB60FF23EB60284604F0B0FD8DF8304037
:100D40008DF831408DF832401094119401220CA995
:100D5000284604F001FE01268DF82C608DF82D60E8
:100D60008DF82E608DF82F4032460BA9284604F0EE
:100D700073FE8DF800408DF801408DF8024001941B
:100D8000049405940694079408948DF824604FF415
:100D900080730A9332466946284604F0CBFE8DF8EC
:100DA00024604FF400730A9332466946284604F0E3
:100DB000C1FE02222146284604F06CFF12B070BD2D
:100DC000E816022000280040F8B51E481E4B0360BC
:100DD000002404634460402747638463C4638460E1
:100DE000046144618461194BC361C46044628462DC
:100DF000C46208260664012545648464C4640465ED
:100E000044658465C565046604F094FF1048114B81
:100E1000036004630323436047638463C4638560A2
:100E200004618461C46044628462C462066445648F
:100E30008464C464046544658465C565046604F01F
:100E400079FFF8BDD4130220045C014000EE0200DB
:100E500074120220245C014008B509484FF0402379
:100E60000360002343608360C36003614361836167
:100E7000C36103624362836205F0AEFD08BD00BF3B
:100E80008813022030B589B0002404940594069498
:100E900007940194029403940D4D0E4B2B606C60EB
:100EA000AC60EC602C616C61AC61284606F054F8D3
:100EB0004FF48053049304A9284606F05DF9019489
:100EC0000294039401A9284606F038FA09B030BD0F
:100ED000481302200004014030B59BB00024169452
:100EE0001794189419941394149415940C940D94C5
:100EF0000E940F941094119412942C22214601A860
:100F00001AF0C9FC204D214B2B606C60AC60EC608A
:100F10002C616C61AC61284606F01EF84FF48053DA
:100F2000169316A9284606F027F9284606F02DF84C
:100F300013941494159413A9284606F0FFF960231E
:100F40000C930D940E940F941094119412942246C5
:100F50000CA9284606F06AF80194029403940494BC
:100F600005944FF400530693079408944FF00073D0
:100F700009930A940B9401A9284606F011FA284611
:100F800000F0B2FF1BB030BD081702200000014086
:100F900030B58FB000240A940B940C940D940794F0
:100FA0000894099400940194029403940494059481
:100FB0000694154D4FF080432B606C60AC60EC6084
:100FC0002C61AC61284605F0C7FF4FF480530A93AB
:100FD0000AA9284606F0D0F8284605F0D6FF07945F
:100FE000099407A9284606F0A9F960230093019403
:100FF0000294049422466946284606F017F82846CB
:1010000000F072FF0FB030BDC817022030B58FB0AE
:1010100000240A940B940C940D940794089409945A
:101020000094019402940394049405940694154D3D
:10103000154B2B606C60AC60EC602C61AC61284699
:1010400005F08AFF4FF480530A930AA9284606F058
:1010500093F8284605F099FF0794099407A92846B4
:1010600006F06CF9602300930194029404940C221E
:101070006946284605F0DAFF284600F035FF0FB034
:1010800030BD00BF4C150220000C004030B589B0C7
:101090000024019402940394049405940694079404
:1010A0000C4D0D4B2B606C60AC60EC602C61AC6146
:1010B000284605F06AFF6023019302940394059487
:1010C000224601A9284605F0B1FF284600F00CFF92
:1010D00009B030BD081802200018004030B589B0B2
:1010E00000240394049405940694079400940194B6
:1010F00002940F4D0F4B2B6042F227336B60AC60B4
:1011000040F2F313EB602C61AC61284605F024FF3C
:1011100004230393049403A9284606F0E3F80094FB
:1011200002946946284606F009F909B030BD00BFAF
:101130008C1502200004004008B50948094B0360E3
:101140004FF4E133436000238360C36003610C22EA
:1011500042618361C3610362436206F0DCFB08BD48
:10116000641602200010014008B50948094B0360CD
:101170004FF4E133436000238360C36003610C22BA
:1011800042618361C3610362436206F0C4FB08BD30
:10119000481702200014014008B507F0C3FB0BF00C
:1011A00031FE0AF089FE012008F057FFFBE700003E
:1011B00070B5B4B03022002128A81AF06CFB0024CE
:1011C000239424942594269427948422214602A8CB
:1011D0001AF061FB03F076FB2F4B1A6C42F0805241
:1011E0001A641B6C03F080530093009B2B4B1A680E
:1011F00042F440421A601B6803F440430193019B90
:10120000092328934FF48032299201262D96022536
:101210002E954FF480022F92192230924FF4C8720B
:1012200031923295339328A803F01EFC03F052FB51
:101230000F232393249525944FF4A05326934FF422
:1012400080532793062123A803F04CFE144B0293EE
:10125000642303930695049505954FF4C073079393
:1012600005230993089503230A930B960C964FF4D4
:1012700000330D934FF400730E931294139418944B
:101280001B941D944FF000632193229402A803F055
:101290001FFF34B070BD00BF003802400070004036
:1012A0006848B10108B54FF488714FF4487000F0F8
:1012B000B7F9054805F050FE00B1FEE7024805F019
:1012C000DDFC00B1FEE708BD8C15022000B589B039
:1012D00001F027F8FFF76CFFFFF7DEFAFFF762FC7B
:1012E000FFF78EFCFFF79EFCFFF7B4FCFFF7D4FC82
:1012F000FFF7F4FCFFF708FDFFF766FDFFF7BCFA08
:10130000FFF7AAFDFFF7E8FDFFF742FEFFF7E6FE55
:10131000FFF77CFEFFF7B6FDFFF7B8FEFFF70CFF07
:10132000FFF722FFFFF7BEFF0BF042FD0BF04CFD75
:1013300001AC084D0FCD0FC495E8070084E8070005
:10134000002101A808F04FFE034B186008F033FE9F
:10135000FEE700BF34BA0108F812022000B58FB0D2
:10136000684600F0BFF99DF800308DF834300B4A24
:10137000127893420FD0094A1370BDF802105180C1
:10138000BDF80C30938100228DF835200B910C9321
:101390000BA80DF093F80FB05DF804FB181A0020AD
:1013A00010B504460268074B9A4204D02268064BE7
:1013B0009A4203D010BD00F0BFFFF7E7FFF7CEFF62
:1013C000F8E700BF00100040000400407047000034
:1013D00070B58AB0444B834243D0444C236B43F0F6
:1013E00002032363236B03F002030393039B4FF475
:1013F0008073059312230693002507950223089313
:10140000042309933A4E05A9304601F0FFFB4FF43F
:101410000073059305A9304601F0F8FB236C43F4F3
:1014200000132364236C03F400130493049B236AC6
:1014300043F400132362236A23F4001323622A4631
:101440000F211F2001F04CF91F2001F07BF92A46E3
:101450000F21202001F044F9202001F073F90AB097
:1014600070BD224C236B43F080032363236B03F096
:1014700080030193019B802305931223069300258B
:10148000079502230893042309931A4E05A93046B1
:1014900001F0BCFB4FF48073059305A9304601F0C1
:1014A000B5FB236C43F400032364236C03F40003B3
:1014B0000293029B236A43F400032362236A23F40A
:1014C000000323622A460F21482001F009F9482031
:1014D00001F038F92A460F21492001F001F949208D
:1014E00001F030F9BBE700BF441A00200038024089
:1014F00000040240001C024010B5044602F06AFEDF
:10150000A0B90C4B9C4212D00B4B23600B4B636079
:101510000023A3600122E26023616361E36123622F
:101520002046FFF755FF204602F02AFC10BD044B71
:101530002360EBE7441A002000540040322791401A
:10154000005C004010B5044602F078FC2046FFF72E
:10155000D3FF10BD70B584B006460C464FF47A71C7
:101560000291BDF82410019108990091214602F0E2
:101570007EFC054610B9284604B070BD21463046B1
:10158000FFF7E0FFF7E770B584B006460C464FF46E
:101590007A710291BDF824100191089900912146B9
:1015A00002F03CFD054610B9284604B070BD214646
:1015B0003046FFF7C7FFF7E708B50248FFF79CFF83
:1015C00008BD00BF441A002010B584B004AC04F874
:1015D000012D0123019300940A4601460248FFF7BA
:1015E000B9FF04B010BD00BF441A002000B585B09B
:1015F00004AA002302F8013D0123019300920A4648
:1016000001460448FFF7BFFF9DF80F0005B05DF8E5
:1016100004FB00BF441A002008B500F09FFE08BD7F
:1016200010B50D4B18800D4B19800D4C23687020A0
:10163000984763687020984751280BD1094A146075
:101640007020094A1070094A08211170E368984710
:10165000002010BD0320FCE7C21A0020C41A00209D
:10166000BC010020BC1A0020901A0020C01A0020E3
:1016700010B582B0044602A9002341F8043D184B7E
:101680001878FFF777F8019B182B1DD006D8102B80
:1016900012D0142B14D05BB101200BE0402B17D0DB
:1016A000492B19D01C2BF7D10423A362002001E0A1
:1016B0000020A06202B010BD0123A3620020F9E760
:1016C0000223A3620020F5E70323A3620020F1E7D1
:1016D0000523A3620020EDE70623A3620020E9E7CB
:1016E000901A002030B593B005460023059304936B
:1016F0000393694B1B681B69684A107898472870E8
:10170000002800F0C68000241FE012AA02EB440269
:1017100032F8241C22F80C1C32F8301C22F8181C59
:1017200026E09BB25B1A9BB255E092B2121A92B2BB
:101730005EE005EB44035980231D05EB43039880CD
:101740007AE02B190122DA7601342B78A34240F299
:101750009D80514B1B685B69610006AA0A4409A879
:1017600001444E48007898474D4B1B78012BCCD054
:1017700013F0020F08D012AA02EB440131F8242C16
:10178000C2F5805221F80C2C13F0040F08D012AAD5
:1017900002EB440131F8302CC2F5805221F8182CAC
:1017A00013F0080F0AD012AB03EB440333F8242CD8
:1017B00023F8182C33F8302C23F80C2C12AB03EB45
:1017C000440333F80C1C374B53F824309942A8D902
:1017D0009BB2CB1A9BB212AA02EB440232F8180C4D
:1017E000314A52F8242090429FD992B2821A92B282
:1017F0001344052B05DD2B4B43F824102A4B43F8EB
:101800002400264B1B78702B93D0264B53F82430A2
:10181000264A128803FB02F31B0B05EB440253809C
:10182000214B53F82430224A128803FB02F31B0B8E
:10183000221D05EB42029380184B187803AB0093EE
:1018400004AB05AA2146FEF7A7FF2B19059A9A7546
:10185000049A83F82020039B032B3FF675AF01A267
:1018600052F823F043170008751800087D18000887
:10187000851800082B190222DA7665E72B19032256
:10188000DA7661E72B190022DA765DE72846FFF762
:10189000EFFE13B030BD00BFBC1A0020901A00202C
:1018A000C01A0020941A0020A81A0020C21A002092
:1018B000C41A002000B583B00D4B1A6C42F0805260
:1018C0001A641A6C02F080520092009A5A6C42F428
:1018D00080425A645B6C03F480430193019B0022B5
:1018E0000F216FF0010000F0FBFE03B05DF804FB78
:1018F0000038024010B588B0002303930493059389
:101900000693079302681A4B9A4201D008B010BDA3
:1019100003F58B335A6C42F480625A645A6C02F4B9
:1019200080620092009A1A6B42F020021A631A6BCE
:1019300002F020020192019A1A6B42F001021A632E
:101940001B6B03F001030293029B4FF4F8630393B4
:101950000324049403A9074801F058F901230393D1
:1019600004940023059303A9034801F04FF9CDE740
:101970000022014000140240000002400268094BAE
:101980009A4200D0704782B003F500631A6B42F4AC
:1019900080521A631B6B03F480530193019B02B0C6
:1019A000704700BF0030024070B58CB00023079331
:1019B000089309930A930B930268394B9A4201D01A
:1019C0000CB070BD374B5A6B42F001025A635A6B30
:1019D00002F001020192019A1A6B42F010021A639E
:1019E0001A6B02F010020292029A1A6B42F008027D
:1019F0001A631A6B02F008020392039A1A6B42F000
:101A000040021A631A6B02F040020492049A1A6BA5
:101A100042F080021A631A6B02F080020592059A66
:101A20001A6B42F001021A631B6B03F00103069369
:101A3000069B60230793022608960D250B9507A9A0
:101A4000194801F0E3F80823079308960024099445
:101A50000A940B9507A9154801F0D8F84FF40073C4
:101A60000793089609940A940B9507A9104801F06A
:101A7000CDF84FF4BC430793089609940A940B954C
:101A800007A90C4801F0C2F850230793089609945F
:101A90000A940B9507A9084801F0B8F890E700BF31
:101AA000000005500038024000100240000C0240C7
:101AB00000180240001C02400000024010B58AB02D
:101AC0000023059306930793089309930368264A16
:101AD000934204D0254A934222D00AB010BD244C30
:101AE000236B43F002032363236B03F00203019390
:101AF000019B4FF440730593122306930123079330
:101B00000423099305A91B4801F080F8236C43F4D2
:101B100000132364236C03F400130293029BDCE79D
:101B2000134C236B43F080032363236B03F0800388
:101B30000393039B4FF4C073059312230693012371
:101B40000793032308930423099305A90A4801F086
:101B50005DF8236C43F400032364236C03F4000357
:101B60000493049BB9E700BF00540040005C0040B0
:101B70000038024000040240001C024008B503681F
:101B80000F4A934203D00F4A93420CD008BD02F58E
:101B9000F232136C23F4001313644FF440710A48BB
:101BA00001F024F9F2E702F5EE32136C23F400039E
:101BB00013644FF4C071054801F018F9E6E700BF5F
:101BC00000540040005C004000040240001C024041
:101BD0002DE9F0438BB000230593069307930893F8
:101BE000099302682E4B9A4202D00BB0BDE8F083F5
:101BF0002C4B9A6B42F002029A639A6B02F002023B
:101C00000192019A1A6B42F010021A631A6B02F0E9
:101C100010020292029A1A6B42F002021A631A6BC5
:101C200002F002020392039A1A6B42F008021A634E
:101C30001B6B03F008030493049B4FF00409CDF8D9
:101C4000149002250695032408940926099605A9EF
:101C5000154800F0DBFF4023059306950027079702
:101C600008940A230993DFF8488005A9404600F04C
:101C7000CDFFCDF81490069507970894099605A90D
:101C8000404600F0C3FF4FF4605305930695079755
:101C90000894099605A9054800F0B8FFA5E700BF1C
:101CA000001000A00038024000100240000C02406A
:101CB000000402400268054B9A4200D07047044A73
:101CC000136F43F400431367F8E700BF0028004098
:101CD0000038024070B588B0002303930493059345
:101CE0000693079302681E4B9A4201D008B070BD5C
:101CF00003F586335A6C42F400625A645A6C02F45B
:101D000000620092009A1A6B42F004021A631A6B86
:101D100002F004020192019A1A6B42F008021A635F
:101D20001B6B03F008030293029B4FF4F8530393D9
:101D300002260496032506950C2407940DEB040156
:101D4000084800F063FF04230393049600230593DF
:101D5000069507940DEB0401034800F057FFC5E713
:101D6000002C014000080240000C024000B589B080
:101D70000023039304930593069307930368B3F139
:101D8000402F02D009B05DF804FB03F5FC331A6C58
:101D900042F480321A641A6C02F480320192019A81
:101DA0001A6B42F008021A631B6B03F008030293DC
:101DB000029B80230393022304930823079303A920
:101DC000014800F023FFDDE7000C024000B58DB0B4
:101DD00000230793089309930A930B930368314AEE
:101DE000934216D0B3F1804F20D02F4A934229D08E
:101DF0002E4A93424BD02E4A934214D12D4B5A6C0B
:101E000042F002025A645B6C03F002030693069BE5
:101E100009E0284B5A6C42F001025A645B6C03F0F3
:101E200001030193019B0DB05DF804FB03F50E3334
:101E30001A6C42F001021A641B6C03F00103029356
:101E4000029BF0E71B4B1A6C42F002021A641A6CF8
:101E500002F002020392039A1A6B42F002021A6322
:101E60001B6B03F002030493049B102307930223CC
:101E700008930B9307A9104800F0C8FE0022052123
:101E80001D2000F02DFC1D2000F05CFCCBE7094B71
:101E90001A6C42F008021A641B6C03F008030593E5
:101EA000059BC0E70000014000040040000C00401A
:101EB0000004014000380240000402400268094B5F
:101EC0009A4200D0704782B003F508331A6C42F092
:101ED00040021A641B6C03F040030193019B02B0A3
:101EE000704700BF0018004000B58BB00023059379
:101EF00006930793089309930368324A93420BD0E1
:101F0000B3F1804F1ED0304A934232D02F4A9342D1
:101F100043D00BB05DF804FB2D4B1A6B42F001026D
:101F20001A631B6B03F001030193019B4FF4807351
:101F30000593022306930123099305A9254800F080
:101F400065FEE6E703F50E331A6B42F001021A63F1
:101F50001B6B03F001030293029B4FF400430593B4
:101F6000022306930123099305A91A4800F04EFEA7
:101F7000CFE7174B1A6B42F480721A631B6B03F4A2
:101F800080730393039B0123059302230693099314
:101F900005A9114800F03AFEBBE70D4B1A6B42F061
:101FA00080021A631B6B03F080030493049B40239D
:101FB0000593022306930923099305A9074800F016
:101FC00025FEA6E700000140000C0040001800407C
:101FD000003802400000024000200240001C024085
:101FE00030B58BB0002305930693079308930993AC
:101FF00003682D4A934204D02C4A934234D00BB04C
:1020000030BD2B4B5A6C42F010025A645A6C02F0ED
:1020100010020092009A1A6B42F002021A631A6BC5
:1020200002F002020192019A1A6B42F001021A6355
:102030001B6B03F001030293029B8023059302258F
:1020400006950724099405A91A4800F0DFFD4FF40E
:10205000007305930695002307930893099405A937
:10206000154800F0D3FDCAE7114B5A6C42F020022C
:102070005A645A6C02F020020392039A1A6B42F0DF
:1020800004021A631B6B03F004030493049BC02334
:10209000059302230693032308930823099305A9B4
:1020A000064800F0B3FDAAE700100140001401400B
:1020B00000380240000402400000024000080240D4
:1020C00010B588B004460268224B9A4205D02268B7
:1020D000214B9A421FD008B010BD204B1B684BB952
:1020E0001F4A516C41F400015164526C02F4000229
:1020F0000192019A0133194A1360F02303930223DA
:1021000004930023059306930A23079303A9154814
:1021100000F07CFDDBE7114B1B684BB9104A516C9A
:1021200041F400015164526C02F400020292029ADE
:1021300001330A4A13604FF480630393022304932C
:102140000023059306930A23079303A9064800F08A
:102150005DFDC0E7045C0140245C0140C81A00201A
:1021600000380240002002400018024000B589B04B
:1021700000220146362000F0B3FA362000F0E2FAE1
:10218000154B1A6C42F010021A641B6C03F010031A
:102190000193019B02A903A802F07CFF02F05AFF01
:1021A00043000E48A0FB03239B0C013B0C480D4A47
:1021B000026040F2E732C260436000230361836043
:1021C00004F0CAFE18B1012009B05DF804FB044810
:1021D00004F054FDF8E700BF0038024083DE1B43E3
:1021E00094180220001000407047FEE7FEE7FEE76B
:1021F000FEE7704708B5024804F05AFD08BD00BF6D
:102200008C15022008B5024804F052FD08BD00BF3D
:102210009418022008B5024801F069FB08BD00BF10
:102220003822022008B5024802F084F908BD00BF38
:10223000441D022008B5024800F0E8FB08BD00BFBD
:10224000EC1D022008B503460B4A126842B10A4A47
:10225000106803446A46934206D8074A136008BDD3
:10226000054A06491160F2E719F0A8FA0C23036049
:102270004FF0FF30F3E700BFCC1A0020B826022051
:1022800010B40F4AD2F8883043F47003C2F8883093
:102290000C4B196841F001011960002098601C681E
:1022A00009492140196009495960196821F48021C0
:1022B0001960D8604FF0006393605DF8044B70477D
:1022C00000ED00E000380240FFFFF6FE1030002471
:1022D000DFF834D0002103E00C4B5B58435004314D
:1022E0000B480C4B42189A42F6D30B4A02E00023EB
:1022F00042F8043B094B9A42F9D3FFF7C1FF19F0AA
:1023000063FAFEF7E3FF704700000520C8EA010802
:10231000000000207402002074020020B826022071
:10232000FEE708B5032000F0C9F90020FFF71EFF03
:10233000FFF7C0FA002008BD034A1168034B1B7861
:102340000B441360704700BFD4180220E80100203E
:10235000014B1868704700BFD418022038B50446F6
:10236000FFF7F6FF0546B4F1FF3F02D0044B1B78A0
:102370001C44FFF7EDFF401BA042FAD338BD00BF5D
:10238000E80100204A4B5A6822F440325A605A68E9
:1023900041680A435A600268536823F480735360AB
:1023A00002685368016943EA012353600268536875
:1023B00023F0407353600268536881680B43536095
:1023C0000268936823F40063936002689368C168AD
:1023D0000B439360826A374B9A424BD002689368F2
:1023E00023F07063936002689368816A0B43936083
:1023F0000268936823F04053936002689368C16A4F
:102400000B4393600268936823F0020393600268B1
:102410009368816943EA4103936090F82030002B70
:1024200033D10268536823F4006353600268D36AAF
:1024300023F47003D3620168CB6AC269013A43EAAC
:102440000253CB620268936823F4007393600268BE
:10245000936890F8301043EA4123936002689368D0
:1024600023F48063936002689368416943EA81239F
:10247000936070470268936823F07063936002680A
:10248000936823F040539360BCE70268536843F4B9
:10249000006353600268536823F46043536001682B
:1024A0004B68426A013A43EA42334B60BEE700BFE1
:1024B000002301400100000F28B310B50446036C4F
:1024C00043B1236C13F0100F0BD00120002384F8CC
:1024D0003C3010BDFFF70EFA0023636484F83C30F3
:1024E000EFE7226C094B134043F0020323642046BC
:1024F000FFF748FF00206064236C23F0030343F0E0
:1025000001032364E2E70120704700BFFDEEFFFFF7
:1025100030B482B00023019390F83C30012B00F0DE
:10252000C080012380F83C300B68092B22D9056854
:10253000EA689BB203EB43031E3B072404FA03F350
:1025400022EA0303EB600B68574A93420BD00568FD
:10255000EA688C689BB203EB43031E3B04FA03F367
:102560001343EB601BE00268D3688C6843EA0463A2
:10257000D36014E005682A699BB203EB4303072488
:1025800004FA03F322EA03032B6105682A698C68C5
:102590000B8803EB430304FA03F313432B614B68EB
:1025A000062B24D805686A6B03EB8303053B1F24C5
:1025B00004FA03F322EA03036B6305686A6B4B6852
:1025C00003EB8303053B0C8804FA03F313436B63AB
:1025D0000268364B9A423AD00268344B9A423FD056
:1025E000002380F83C30184602B030BC70470C2BFA
:1025F00016D805682A6B03EB8303233B1F2404FAD8
:1026000003F322EA03032B6305682A6B4B6803EB91
:102610008303233B0C8804FA03F313432B63D7E7AC
:102620000568EA6A03EB8303413B1F2404FA03F3C2
:1026300022EA0303EB620568EA6A4B6803EB830353
:10264000413B0C8804FA03F31343EB62C0E70B68C9
:10265000122BC1D1164A536843F480035360BBE781
:102660000B68114A112B18BF9342B9D1104A536815
:1026700043F4000353600A680B4B9A42B0D10D4BF0
:102680001B680D4AA2FB03239B0C03EB83035A0038
:10269000019202E0019B013B0193019B002BF9D1C8
:1026A0009EE70220A0E700BF1200001000200140BA
:1026B00000230140E401002083DE1B430649CB6870
:1026C00023F4E0631B041B0C000200F4E0600343EE
:1026D000024A1A43CA60704700ED00E00000FA05A4
:1026E00030B4154BDB68C3F30223C3F10704042C99
:1026F00028BF04241D1D062D14D9033B4FF0FF35C0
:1027000005FA04F421EA0401994005FA03F322EAE8
:1027100003031943002807DB0901C9B2074B195409
:1027200030BC70470023E9E700F00F000901C9B28F
:10273000034B1954F4E700BF00ED00E000E400E0B3
:1027400014ED00E0002807DB00F01F024009012320
:102750009340024A42F82030704700BF00E100E099
:1027600000280CDB00F01F024009012393402030B9
:10277000034A42F82030BFF34F8FBFF36F8F70478B
:1027800000E100E0002838D010B50446437F1BB3B9
:102790000223637723791BBB2368194A5A61226895
:1027A000936823F018039360637913BB23684FF099
:1027B000FF321A612268936823F0600361690B435A
:1027C00093602268936823F08003A1690B439360B0
:1027D00001236377002010BD0377FFF7CFF8D7E719
:1027E000E268A168204600F00DF80028DCD0012046
:1027F000F1E7236822691A61DCE70120704700BF16
:10280000B71DC10430B41F24651E3CB105F01F0381
:1028100021FA03F32C4613F0010FF5D0182A23D820
:10282000DFE802F00F222222222222221E2222226E
:10283000222222221A222222222222220D00062DC8
:1028400014D80368596101688B6823F018031A4390
:102850008A60002030BC7047072DF2D90120F9E7CB
:102860000F2DEED90120F5E70120F3E70120F1E774
:10287000002844D010B5044690F83530002B2ED0F7
:10288000022384F83530226811681E4B0B40136018
:1028900022681168636860690343E0680343206944
:1028A0000343A0680343A0690343206A0343606AAB
:1028B0000343A06A0343E06A0343206B03430B43D3
:1028C00013606368102B0DD02268D36843F01E0399
:1028D000D3600020E064012384F8353010BDFFF799
:1028E00063F8CDE7237F627F43EA0223A27F43EAB6
:1028F0000243E17F226843EA01639361E4E7012038
:10290000704700BF07F0E0FF30B405682C6824F47E
:1029100080242C60046863608368402B05D00368C2
:1029200099600368DA6030BC704703689A60036896
:10293000D960F8E738B5856D90F83440012C31D076
:10294000012480F8344090F83540E4B2012C04D0E2
:10295000002380F83430022038BD0446022084F879
:102960003500002060652046FFF7CEFFE26D3F2373
:102970009340AB602268136843F01603136022682B
:10298000536943F080035361236C23B122681368B9
:1029900043F0080313602268136843F001031360D7
:1029A0000020D9E70220D7E7406D704738B310B553
:1029B000044690F83930EBB1022384F839302268AC
:1029C000136823F4403361680B4313602268536B30
:1029D00023F00703A1680B4353632268116C094B72
:1029E0000B40E1680B4313640020E063012384F88B
:1029F000393010BD80F8383009F0D0FCDCE7012018
:102A0000704700BF00C0FFFF7047704770B50446B5
:102A100003685D681E6815F0010F16D016F4807FFC
:102A200013D01A6822F480721A60C36B43F001035A
:102A3000C363036801229A60042380F839300023BD
:102A400080F83830436903B1984715F0200F18D04B
:102A500016F4005F15D02268136823F40053136046
:102A6000236820229A60E36B43F00203E3630423AC
:102A700084F83930002384F8383063690BB120467C
:102A8000984715F0080F18D016F4006F15D022687B
:102A9000136823F400631360236808229A60E36BD1
:102AA00043F00403E363042384F83930002384F8FB
:102AB000383063690BB12046984715F0040F02D0F7
:102AC00016F4806F20D115F0020F16D016F4007F97
:102AD00013D02268136823F4007313602368022262
:102AE0009A60E36BE363012384F83930002384F8B0
:102AF000383023690BB12046984715F0100F02D0EB
:102B000016F4805F0CD170BD2268136823F48063D3
:102B10001360236804229A602046FFF775FFD2E70E
:102B20002268136823F480531360236810229A608C
:102B3000E36BE363012384F83930002384F83830F1
:102B40002046FFF762FFDEE790F83830012B59D0BE
:102B500030B4012380F83830022380F8393000EB9C
:102B60000113DA698B1C1B01C35842EA0343093A7B
:102B7000012A1ED98A1C00EB0212526843EA026342
:102B800041BB0468656A204A2A40134363620268B5
:102B900000EB01139C699461DB69093B012B10D99F
:102BA000012380F83930002380F83830184630BCD3
:102BB00070478A1C00EB0212526802F07F421343F6
:102BC000DEE7023100EB01114B68026823F07F431E
:102BD0009362E5E70468E5690B4A2A401343E36121
:102BE000026800EB01139C691461DB69093B012B4E
:102BF000D6D8023100EB01114B68026823F07F4305
:102C00001362CDE702207047F0FFFC0000230F2B7A
:102C100000F2E280F0B482B039E0092200E0002244
:102C2000B2403A4302346D4E46F824206C4A146890
:102C3000EA4302EA04064F6817F4803F01D045EAF0
:102C40000406674C2660646802EA04064F6817F4BD
:102C5000003F01D045EA0406614C6660A46802EAC0
:102C600004064F6817F4801F01D045EA04065C4C47
:102C7000A660E46822404E6816F4001F01D045EAC1
:102C80000402574CE26001330F2B00F2A2800122B4
:102C90009A400C6804EA0205AA42F4D14C68122C4E
:102CA00018BF022C10D1DE08083650F826C003F0F9
:102CB0000704A7000F24BC402CEA040C0C69BC409C
:102CC00044EA0C0440F8264004685F000326BE4036
:102CD000F64306EA040C4C6804F00304BC4044EAE2
:102CE0000C0404604C6804F1FF3C112C18BFBCF1CB
:102CF000010F01D9122C11D1846806EA040CCC68AA
:102D0000BC4044EA0C048460446824EA020C4C6829
:102D1000C4F300129A4042EA0C024260C2681640B4
:102D20008A68BA403243C2604A6812F0805FAAD013
:102D30002C4A546C44F480445464526C02F4804233
:102D40000192019A9C08A61C244A52F8267003F0AE
:102D5000030296000F22B24027EA0207224A90425D
:102D60003FF45DAF02F58062904222D002F58062AE
:102D7000904220D002F5806290421ED002F580621F
:102D800090421CD002F5806290421AD002F5806217
:102D9000904218D002F58062904216D002F580620F
:102DA000904214D002F5806290423FF436AF0A227E
:102DB00036E7012234E7022232E7032230E7042219
:102DC0002EE705222CE706222AE7072228E7082219
:102DD00026E702B0F0BC7047704700BF00380140E2
:102DE000003C0140003802400000024000230F2B4D
:102DF00000F29380F0B529E0092700E0002707FAE8
:102E000005F5B54270D005685E000324B440E44384
:102E100025400560DD08083550F8256003F00707F8
:102E20004FEA870C0F2707FA0CF726EA070640F847
:102E30002560856825408560456825EA0202426074
:102E4000C2681440C46001330F2B65D801229A4038
:102E500002EA0104A242F6D14FEA930C0CF10206F9
:102E60002E4D55F8266003F00305AD000F2707FA35
:102E700005FE0EEA06062A4FB842BFD007F5806766
:102E8000B84221D007F58067B8421FD007F58067A8
:102E9000B8421DD007F58067B8421BD007F58067A0
:102EA000B84219D007F58067B84217D007F5806798
:102EB000B84215D007F58067B84213D007F5806790
:102EC000B84299D00A279AE7012798E7022796E7A0
:102ED000032794E7042792E7052790E706278EE764
:102EE00007278CE708278AE70C4E0CF1020556F8F5
:102EF000257027EA0E0746F825700A4D2E68E44330
:102F000026402E606E6826406E60AE682640AE6039
:102F1000EE683440EC6076E7F0BD70470038014061
:102F200000000240003C01400369194201D1002029
:102F300070470120704712B90904816170478161AF
:102F400070470000F8B50668346A04F00F07C4F350
:102F50004343C4F30A14022B2ED16CB307EB870250
:102F6000D3000344596C39B305462246304605F078
:102F7000DFF9BA003A44D3002B445A6C22445A6415
:102F8000DA6C2244DA6406EB4713D3F810150B4AC7
:102F90000A408AB1D3F8002522F0804242F0004274
:102FA000C3F80025BB00D919CA002A4492F8503052
:102FB00083F0010382F85030F8BD00BF0000F81F15
:102FC000F0B585B09DF828509DF82C60BDF83070A4
:102FD00090F8B842012C41D0012480F8B8424FEA61
:102FE000810C8C444FEACC0404444FF0000C84F86C
:102FF0003DC084F83830A4F8407084F8391084F863
:103000003F6002F07F0C84F83AC012F0800F1BD1B1
:1030100001EB810C4FEACC0404444FF0000C84F81F
:103020003BC0044601EB810C4FEACC00204480F801
:103030003C50029701960095206805F07DFA002328
:1030400084F8B83205B0F0BD01EB810C4FEACC0436
:1030500004444FF0010C84F83BC0E2E70220F1E7A2
:1030600090F8B832012B0BD010B50446012380F83C
:10307000B832006805F0E9FA002084F8B80210BD03
:103080000220704700283DD0F0B58BB0064690F87E
:10309000B93293B3032386F8B932306805F0F0F8FB
:1030A000344654F810CB6D460FCC0FC50FCC0FC56E
:1030B00094E8030085E80300371D97E80E0060469A
:1030C00005F09AF80121306805F0E0F8344654F82C
:1030D00010CB6D460FCC0FC50FCC0FC594E8030085
:1030E00085E8030097E80E00604605F09FF901238C
:1030F00086F8B93200200BB0F0BD80F8B83209F084
:10310000A1FEC7E701207047F8B59DF81870BDF81B
:1031100020608D000D44EC00044484F83B2084F8CA
:103120003F306FB901EB8105EC000444032584F8BE
:103130004250032B00F29580DFE803F00A8C2E5DED
:1031400001EB8105EC000444022584F84250F0E7CD
:10315000012F08BF002A40F0848036B901EB8102BC
:10316000D3000344012283F8512001EB8102D300F4
:10317000034493F851303BB901EB8102D30003447F
:10318000002283F842206CE001EB8102D30003446B
:10319000022283F8422064E0B2B901EB8102D3003D
:1031A000034493F851303BB901EB8102D30003444F
:1031B000002283F8422054E001EB8102D300034453
:1031C000022283F842204CE001EB8102D300034449
:1031D00093F850303BB901EB8102D3000344002245
:1031E00083F842203DE001EB8102D3000344022238
:1031F00083F8422035E0B2B901EB8102D3000344E9
:1032000093F851303BB901EB8102D3000344002213
:1032100083F8422025E001EB8102D300034402221F
:1032200083F842201DE001EB8102D300034493F8B0
:1032300050303BB901EB8102D3000344002283F8F4
:1032400042200EE001EB8102D3000344022283F806
:10325000422006E001EB8102D3000344002283F800
:1032600042208A005418E3000344079C5C649E6477
:10327000002483F85C40DC6483F8391083F85D40F7
:103280001144CB0003F13801027C0144006805F0D1
:103290005DFAF8BD30B583B005460468D4F8403413
:1032A0000193D4F840340093009B23F02E03009345
:1032B000019B13F0020F07D0019B13F0010F28D1DF
:1032C000009B43F002030093019B13F0080F13D0FF
:1032D000009B43F008030093019B13F0040F34D0CC
:1032E000AB69022B1CD0EB68032B29D0284609F0D0
:1032F00005FE284609F0F0FD019B13F0200F03D0D6
:10330000009B43F020030093009BC4F8403403B0BB
:1033100030BDA36923F00053A36109F0DDFDCFE7C1
:10332000019B03F4C023B3F5802F04D0012128684A
:1033300005F01AF8DAE70221286805F015F8D5E754
:103340004EF66022C4F80424D0E7284609F0DCFDDC
:10335000D4F8403423F02E03C4F840342A6893692B
:1033600043F000539361C7E7F8B506460D4607687A
:1033700007EB411707F5A064A36813F0040F3CD0D6
:103380000423A360E36843F00203E360A36813F43B
:10339000007F68D1A36813F0010F00F08D803369BE
:1033A0004BB1AA002A44D30033449A6C2169C1F37B
:1033B0001201521ADA64AA002A44D30033440122CB
:1033C00083F85D2000219965A26093F83F20022ACE
:1033D00014BF002301238A4208BF0123002B4ED1D2
:1033E000032A57D0AB005919CA00324492F8503022
:1033F00083F0010382F85030F8BDA36813F0200F6A
:1034000002D02023A360C1E7A36813F0080F17D1EF
:10341000A36813F4806FB9D0E36843F00203E3605C
:10342000006805F012F91023A36005EB8502D300B4
:103430003344082283F85D204FF48063A360A5E73E
:10344000E36843F00203E36001EB8102D30003442D
:10345000052283F85D201023A3600823A360006881
:1034600005F0F3F892E7E36843F00203E3602946CE
:10347000306805F0EAF84FF40073A360BCE7E36836
:1034800043F00203E3602946306805F0DEF81023BC
:10349000A360A7E7D7F8003543F00053C7F800351D
:1034A00005EB8502D3003344012283F85C202946D2
:1034B000304609F01DFD95E7A36813F0020F62D0B6
:1034C000E36823F00203E36005EB8502D300334495
:1034D00093F85D30012B20D0052B32D0082B18BF7C
:1034E000062B3ED1AA002A44D30033449A6D013200
:1034F0009A65032A2DD9AA002A44D3003344002216
:103500009A65042283F85C20D7F8003523F08043C5
:1035100043F00043C7F8003506E005EB8502D30011
:103520003344012283F85C200223A36005EB85026B
:10353000D300334493F85C202946304609F0D8FC88
:103540005AE705EB8502D3003344052283F85C205B
:10355000EAE705EB8502D3003344022283F85C20BE
:10356000D2E7032BE0D105EB8502D30033440222DE
:1035700083F85C20D7F8003523F0804343F0004304
:10358000C7F80035D0E7A36813F0800F21D1A368F6
:1035900013F0100F3FF430AF05EB8502D3001A464D
:1035A000334493F83F30032B2BD0022B14BF00225F
:1035B0000122002B14BF134601233BB105EB85020A
:1035C000D300334400229A6533694BB31023A360C0
:1035D00012E7E36843F00203E360AB005919CA0045
:1035E0003244916D013191652B44DA003244062357
:1035F00082F85D302946306805F027F88023A36003
:10360000FAE605EB8502D300334400229A65E368AD
:1036100043F00203E3602946306805F016F8D5E769
:1036200005EB8502D3003344032283F85D20E36871
:1036300043F00203E3602946306805F006F8C5E769
:10364000F8B5036803EB411303F5A064A26812F018
:10365000040F24D10E460546A26812F0200F25D093
:103660002023A36001EB8102D3001A46034493F8A0
:103670003D30012B19D18B000244002182F83D100E
:103680003344DA000244022382F85C30E36843F0FA
:103690000203E3603146006804F0D7FF05E004232D
:1036A000A360E36843F00203E360F8BDA26812F090
:1036B000400F34D1A26812F4007F4AD1A26812F000
:1036C000010F51D1A26812F0080F62D1A26812F066
:1036D000100F6FD08A000A44D300034400229A6579
:1036E000032283F85D2093F83D306BB901EB810232
:1036F000D300034493F83C3033B901EB8102D3008B
:103700000344012283F83D20E36843F00203E360B1
:103710003146286804F099FF1023A360C5E78B00A9
:103720005918CA000244042182F85D10012182F870
:103730003D103344DA00024400239365E36843F00C
:103740000203E3603146006804F07FFF4023A3607A
:10375000ABE7E36843F00203E360006804F075FF41
:103760004FF40073A360A0E78F007A18D3000344DE
:1037700000229A65E36843F00203E360006804F006
:1037800064FF0123A360B919C800284480F85D30A4
:103790008BE70823A360E36843F00203E36000685B
:1037A00004F053FF06EB8601C8002844052380F887
:1037B0005D307AE7A26812F0800F36D1A26812F469
:1037C000806F43D1A26812F0020F3FF46EAFE2683F
:1037D00022F00202E26001EB8101CA0011460244BC
:1037E00092F85D20012A45D0032A57D0042A69D0D7
:1037F000052A6FD0082A18BF062A56D1282101FBB6
:1038000006018A6D01328A65032A69D90A460021B8
:103810009165042182F85C10D3F8002522F08042E3
:1038200042F00042C3F800253FE0E36843F00203A2
:10383000E360006804F009FF06EB8601CB002B442F
:10384000062283F85D208023A3602EE7E36843F01F
:103850000203E360006804F0F8FE1023A3604FF455
:103860008063A36006EB8601CB002B44082283F81B
:103870005D201AE70B460344012283F85C2093F88D
:103880003F30023BDBB293420FD80B46034493F820
:10389000512082F0010283F8512006E006EB8602F7
:1038A000D3000344022283F85C200223A36006EBCA
:1038B0008602D3002B4493F85C203146284609F059
:1038C00017FBF2E606EB8602D3000344022283F8DC
:1038D0005C20EAE7282303FB060383F85C20E4E787
:1038E000282202FB0602022182F85C1094E7F8B558
:1038F00004460568284604F033FD012800D0F8BDD1
:10390000206804F029FD0028F9D0206804F024FD87
:1039100010F4001F03D023684FF400125A6120688E
:1039200004F01AFD10F4801F03D023684FF48012B6
:103930005A61206804F010FD10F0806F03D02368F6
:103940004FF080625A61206804F006FD10F0020F0B
:1039500002D0236802225A61206804F0FDFC10F0B6
:10396000005F25D1206804F0F7FC10F0807F31D192
:10397000206804F0F1FC10F0080F2FD1206804F04B
:10398000EBFC10F0007F30D1206804F0E5FC10F073
:10399000100FB4D02268936923F01003936120467E
:1039A000FFF7D0FA2268936943F010039361A6E70A
:1039B000D5F8403423F02E03C5F84034204609F0F2
:1039C00091FA0121206804F0CFFC23684FF00052E7
:1039D0005A61C7E72046FFF75DFCC9E7204609F0BA
:1039E00075FA236808225A61C8E7206804F028FEA7
:1039F0000746002604E0F1B22046FFF721FE01361B
:103A0000A368B34212D906F00F0327FA03F313F0A9
:103A1000010FF4D005EB4613D3F8003513F4004F33
:103A2000E9D0F1B22046FFF79FFCE8E723684FF0AA
:103A300000725A61A8E738B590F8B832012B0ED061
:103A40000446012580F8B852006804F013FC2946AA
:103A5000206804F0C8FC002084F8B80238BD0220B9
:103A6000FCE790F8B832012B0BD010B504460123C7
:103A700080F8B832006804F015FF002084F8B8021E
:103A800010BD0220704708B5006804F08DFC08BD29
:103A900001EB8101CB00184490F85C00704701EB0A
:103AA0008101CB001844C06C704708B5006804F071
:103AB0003EFD08BD08B5006804F02EFD08BD036892
:103AC0009A6912F0020F01D000229A6203689A6983
:103AD00012F0010F03D19A6942F001029A61704716
:103AE00070B4039E05686868740D04F4806444F043
:103AF0007F7444F4583444F47F7444F0030420EA9F
:103B00000400C1F3090141EA024119433143014371
:103B1000696070BC704770B504460D461646036870
:103B20009B6913F0100F1CD023689A6912F0200FC4
:103B300019D1B5F1FF3FF7D0FEF70AFC801BA84270
:103B400001D8002DF0D1636C43F02003636420237F
:103B500084F84130002384F8423084F8403001205A
:103B600020E000201EE01022DA6123682025DD61BC
:103B70002046FFF7A4FF2268536823F0FF7323F465
:103B80008B3323F4FF7323F001035360636C43F022
:103B90000403636484F84150002384F8423084F8BD
:103BA0004030012070BD70B504460D4616462368AE
:103BB0009B6913F0020F1DD1324629462046FFF7BC
:103BC000AAFFC8B9B5F1FF3FF1D0FEF7C1FB801BDA
:103BD000A84201D8002DEAD1636C43F0200363644E
:103BE000202384F84130002384F8423084F84030A8
:103BF000012000E0002070BD0120FCE7F8B505467B
:103C00000F4616461C462B689B6937EA03030CBF18
:103C100001230023B34218D1B4F1FF3FF3D0FEF7E4
:103C200097FB069BC01AA04201D8002CEBD16B6C0D
:103C300043F020036B64202385F84130002385F88E
:103C4000423085F84030012000E00020F8BD00003F
:103C500070B582B0044616461D46184B00934FF0CF
:103C60008073EAB2FFF73CFF079A06992046FFF7F8
:103C70009AFFE8B9012D0ED12368F6B29E62079B28
:103C80000093069B002280212046FFF7B7FF0346E2
:103C900078B101230DE02368320A9A62079A0699E7
:103CA0002046FFF780FF38B92368F6B29E62E6E748
:103CB0000123184602B070BD0123FAE700200080FE
:103CC00070B582B0044616461D46184B009300237B
:103CD000EAB2FFF705FF079A06992046FFF763FF50
:103CE000E8B9012D0ED12368F6B29E62079B0093BE
:103CF000069B002240212046FFF780FF034678B153
:103D000001230DE02368320A9A62079A0699204639
:103D1000FFF749FF38B92368F6B29E62E6E7012350
:103D2000184602B070BD0123FAE700BF00200080F2
:103D300070B505460C4616462B689B6913F0200F9C
:103D40001AD1324621462846FFF7E5FEB0B9FEF704
:103D5000FFFA801BA04201D8002CEDD16B6C43F020
:103D600020036B64202385F84130002385F842301E
:103D700085F84030012070BD0020FCE70120FAE703
:103D8000002857D010B5044690F84130002B41D0A0
:103D9000242384F841302268136823F00103136060
:103DA0006368226823F0706313612268936823F4C8
:103DB00000439360E368012B31D0A368226843F489
:103DC00004439360E368022B2FD0226851681A4B9A
:103DD0000B4353602268D36823F40043D360236904
:103DE00062691343A169226843EA0123D360E3694E
:103DF000216A22680B4313602268136843F00103B1
:103E0000136000206064202384F84130206384F82C
:103E1000420010BD80F84030FDF750FEB8E7A368BF
:103E2000226843F400439360CCE723684FF40062B8
:103E30005A60CAE70120704700800002A8B110B59F
:103E40000446242380F841300268136823F00103FC
:103E50001360FDF793FE0020606484F84100206346
:103E600084F8420084F8400010BD012070472DE91D
:103E7000F04782B0BDF82C6090F84150EDB2202D93
:103E800040F0BF80B6FA86F56D090A9C002C08BF89
:103E90000125D5B990F84040012C00F0B780984634
:103EA00091460D4604464FF0010A80F840A0FEF707
:103EB0004FFA07460090192352464FF4004120461E
:103EC000FFF79CFE30B101239CE04FF40073436484
:103ED000012397E0212384F84130402384F84230C5
:103EE000002363640A9A62626685636301970C9B90
:103EF000009343464A4629462046FFF7A9FE70B97B
:103F0000638D9BB2FF2B0FD9FF22228500230093E4
:103F10004FF0807329462046FFF7E2FD21E00023A1
:103F200084F8403053466DE0628D92B222850023C2
:103F300000934FF00073D2B229462046FFF7D0FD20
:103F40000FE0628D92B22285002300934FF0007340
:103F5000D2B229462046FFF7C3FD638D9BB2002BEA
:103F600032D03A460C992046FFF71DFE00284FD16B
:103F7000626A236812789A62636A01336362638DAE
:103F8000013B9BB26385238D013B9BB22385628DF0
:103F900092B2002AE1D0002BDFD100970C9B0022C7
:103FA00080212046FFF72AFEA0BB638D9BB2FF2B2A
:103FB000C7D9FF222285002300934FF08073294642
:103FC0002046FFF78DFDC8E73A460C992046FFF7DB
:103FD000AFFE034600BB22682021D1612068426801
:103FE00022F0FF7222F48B3222F4FF7222F00102DF
:103FF000426084F84110002284F8422084F8402076
:1040000000E00223184602B0BDE8F0870223F9E77A
:104010000123F7E70123F5E70123F3E72DE9F04753
:1040200082B0BDF82C6090F84150EDB2202D40F0E8
:10403000C180B6FA86F56D090A9C002C08BF0125DF
:10404000D5B990F84040012C00F0B98098469146CF
:104050000D4604464FF0010A80F840A0FEF778F9BB
:1040600007460090192352464FF400412046FFF7BF
:10407000C5FD30B101239EE04FF40073436401237A
:1040800099E0222384F84130402384F84230002311
:1040900063640A9A62626685636301970C9B00936E
:1040A00043464A4629462046FFF70AFE70B9638D0B
:1040B0009BB2FF2B0FD9FF222285454B00934FF077
:1040C000807329462046FFF70BFD21E0002384F88A
:1040D000403053466FE0628D92B222853C4B009394
:1040E0004FF00073D2B229462046FFF7F9FC0FE0EB
:1040F000628D92B22285002300934FF00073D2B2FA
:1041000029462046FFF7ECFC638D9BB2002B34D090
:1041100000970C9B002204212046FFF76FFD00282A
:104120004FD123685A6A636A1A70636A0133636203
:10413000238D013B9BB22385628D013A92B2628549
:10414000628D92B2002ADFD0002BDDD100970C9B4C
:10415000002280212046FFF751FDA0BB638D9BB25A
:10416000FF2BC5D9FF222285002300934FF08073D7
:1041700029462046FFF7B4FCC6E73A460C9920468C
:10418000FFF7D6FD034600BB22682021D1612068DD
:10419000426822F0FF7222F48B3222F4FF7222F086
:1041A0000102426084F84110002284F8422084F821
:1041B000402000E00223184602B0BDE8F087022349
:1041C000F9E70123F7E70123F5E70123F3E700BF50
:1041D0000024008090F84100704790F84130DBB235
:1041E000202B24D190F84030012B22D0012380F8DD
:1041F0004030242380F841300268136823F0010323
:1042000013600268136823F4805313600268136814
:10421000194311600268136843F0010313602023FF
:1042200080F84130002380F8403018467047022063
:1042300070470220704790F84130DBB2202B22D12A
:1042400090F84030012B20D0012380F84030242307
:1042500080F841300268136823F00103136002689C
:10426000136823F4706343EA012111600268136844
:1042700043F001031360202380F84130002380F8CD
:1042800040301846704702207047022070470000F7
:10429000F0B44D680468E368C3F30B431D44D201D6
:1042A0001444D4F8883003F47043C4F888300B68A1
:1042B0000468E668C6F30B4633440133144443EA0A
:1042C0000543C4F88830CD680468E368C3F30A0383
:1042D0001D441444D4F88C3003F47043C4F88C307B
:1042E0008B680468E668C6F30A0633440133144455
:1042F00043EA0543C4F88C3003681344D3F8944070
:1043000024F00704C3F89440036813440C69C3F80D
:10431000944091F831C091F832708E690568154467
:10432000D5F89C300024C5F89C4091F8303043EA21
:104330000C2343EA07430568154443EA0663C5F8BE
:104340009C3003681344D3F8985025F0FF05C3F858
:104350009850036813444D69C3F898500368134498
:10436000D3F8A0602D4D3540C3F8A050CD690E6A3A
:10437000036813443543C3F8A05003681344D3F8CB
:10438000AC50C3F8AC40036813444C6AC3F8AC406B
:104390000B696BB1012B3AD0022B18BF042B38D01C
:1043A000032B38D0072B01D0012302E0022300E0C9
:1043B000042304681444D4F8B05005F0E025C4F890
:1043C000B0508C6A03FB04F54C680E68A41B03FB19
:1043D00004F303330468144443EA0543C4F8B030DB
:1043E00003681344D3F8B4500D4C2C40C3F8B440C8
:1043F00003681344C96AC3F8B41003681A44D2F8B6
:10440000843043F00103C2F88430F0BC70470323CA
:10441000CFE70223CDE70223CBE700BFF8F8FFFF89
:1044200000F8FFFF002872D038B5044690F8A1309C
:10443000002B67D0022384F8A1302268936923F00F
:104440007043936121688A696368A0680343E068E8
:1044500003432069034313438B6121688A682D4B12
:104460001A408A60656920688268A16941EA05414D
:104470000A4382602168CA681A40CA60E5692068F8
:10448000C268216A41EA05410A43C26021680A699B
:104490001A400A61656A20680269A16A41EA054119
:1044A0000A43026121684A6913404B61E06A21684E
:1044B0004B69226B42EA004213434B6194F835008A
:1044C00094F836301B042168CA6A02F07F42CA623F
:1044D0002168CA6A43EA002394F834000343134373
:1044E000CB622268536B43F00603536322689369DF
:1044F00043F0010393610020C4F8A400012384F871
:10450000A13038BD80F8A03007F07CFE92E7012092
:10451000704700BF00F800F010B5044607F006FF32
:104520000020C4F8A40084F8A10084F8A00010BD05
:104530007047704770B5044603689D6B5E6B15F05D
:10454000040F02D016F0040F12D115F0020F02D0A2
:1045500016F0020F21D115F0010F02D016F0010F55
:1045600032D115F0080F02D016F0080F3DD170BD02
:104570005A6B22F004025A6303680422DA63D0F80B
:10458000A43043F00103C0F8A43080F8A120002338
:1045900080F8A030FFF7CCFFD7E72268536B23F0F9
:1045A0000203536323680222DA63D4F8A43013436E
:1045B000C4F8A430042384F8A130002384F8A03088
:1045C0002046FFF7B5FFC6E72268536B23F00103CF
:1045D000536322680123D36384F8A130002384F855
:1045E000A030204608F056FABBE72268536B23F050
:1045F0000803536323680822DA63012384F8A13097
:10460000002384F8A0302046FFF793FFAFE790F82F
:10461000A030012B27D02DE9F04194460F460646E5
:104620004FF0010880F8A080022380F8A1303424E4
:1046300004FB020438340D460FCD0FC40FCD0FC458
:104640000FCD0FC42B682360624639463046FFF712
:104650001FFE3368C3F8248086F8A180002086F806
:10466000A000BDE8F0810220704790F8A030012B37
:104670001DD030B4012480F8A040022380F8A1307E
:104680000368D2011344D3F8905005F07F45C3F876
:10469000905003681A44C2F8901003685C6280F876
:1046A000A140002380F8A030184630BC704702209B
:1046B0007047F0B490F8A040012C36D0012480F867
:1046C000A040022480F8A140002612E006EB061468
:1046D0000F68FDB245EA046407F47F452C4307F4F4
:1046E0007F073C430431056805EBC315C5F8C4409A
:1046F0000136964210D2342404FB0304A46C062C29
:10470000E4D00D68ECB244EA066405F47F473C430C
:1047100005F47F052C43E5E7012380F8A130002351
:1047200080F8A0301846F0BC70470220FBE790F8F4
:10473000A030012B17D0012280F8A020022380F89E
:10474000A130036803EBC111D1F8843043F00203B8
:10475000C1F8843003685A6280F8A120002380F8F1
:10476000A030184670470220704790F8A030012B07
:1047700017D0012280F8A020022380F8A13003681E
:1047800003EBC111D1F8843023F00203C1F8843067
:1047900003685A6280F8A120002380F8A0301846F0
:1047A000704702207047F8B590F8A040012C21D046
:1047B0000446012580F8A050022084F8A10034208E
:1047C00000FB03F000F1380720448163066E0E44BD
:1047D000C6630264466E324442641A46E1192046BA
:1047E000FFF756FD23685D6284F8A150002084F82D
:1047F000A000F8BD0220FCE738B590F8A030012BEE
:1048000019D00446012580F8A050022380F8A13079
:10481000342303FB02F303F138002344D964211845
:104820002046FFF735FD23685D6284F8A150002023
:1048300084F8A00038BD0220FCE738B590F8A0301D
:10484000012B19D00446012580F8A050022380F8DE
:10485000A130342303FB02F303F138002344D9656C
:1048600021182046FFF714FD23685D6284F8A150EB
:10487000002084F8A00038BD0220FCE790F8A030AA
:10488000012B1AD010B4012280F8A020022380F856
:10489000A1300468636B23F001036363084B196460
:1048A00001684B6B13434B6380F8A120002380F811
:1048B000A03018465DF8044B70470220704700BFD7
:1048C00000680140024A136843F480731360704724
:1048D0000070004010B582B01B4B1A6C42F0805241
:1048E0001A641B6C03F080530193019B174A1368F1
:1048F00043F480331360FDF72BFD0446134B5B68D4
:1049000013F4803F08D1FDF723FD001BB0F57A7F3B
:10491000F4D9032002B010BD0C4A136843F40033ED
:104920001360FDF715FD0446084B5B6813F4003F68
:1049300007D1FDF70DFD001BB0F57A7FF4D90320F8
:10494000E8E70020E6E700BF0038024000700040C2
:104950002DE9F04105460F4616469846069C2B6801
:104960009B683B4214BF01230023B34212D0B4F131
:10497000FF3FF4D02CB1FDF7EBFCA0EB0800A04208
:10498000EDD9042385F841306B6C43F001036B646F
:10499000012000E00020BDE8F08181647047000044
:1049A00030B583B00446FDF7D3FC002C54D0054647
:1049B00094F84030DBB2012B50D0012384F8403012
:1049C00094F84130002B3CD021680B6823F4F85355
:1049D000A268013A43EA02230B60A36C00932B46C2
:1049E000002220212046FFF7B3FF024618BB2068B3
:1049F00003681B4919406568E36843EA0563E56994
:104A00002B43256A2B430B43036020684168154BF9
:104A10000B402569616941EA0541A56929430B43BA
:104A2000436021680B6843F001030B60002363645B
:104A3000012384F84130002384F84030104603B04D
:104A400030BD84F840302046FDF7C2F841F288318D
:104A50002046FFF7A2FFB7E70122EFE70222EDE7CA
:104A60002FFFFF00FEF8E0FF002800F0DB8170B5AB
:104A700082B00446036813F0010F29D0A24B9B6853
:104A800003F00C03042B1AD09F4B9B6803F00C031C
:104A9000082B0FD06368B3F5803F40D0002B54D172
:104AA000994B1A6822F480321A601A6822F4802224
:104AB0001A6039E0944B5B6813F4800FEAD0924B94
:104AC0001B6813F4003F03D06368002B00F0AC8137
:104AD000236813F0020F75D08B4B9B6813F00C0FFB
:104AE0005ED0894B9B6803F00C03082B53D0E3681E
:104AF000002B00F08A80844A136843F0010313609E
:104B0000FDF726FC0546804B1B6813F0020F73D19E
:104B1000FDF71EFC401B0228F5D9032087E17A4AE5
:104B2000136843F48033136063682BB3FDF710FC04
:104B30000546754B1B6813F4003FC9D1FDF708FC0F
:104B4000401B6428F5D9032071E1B3F5A02F09D0EB
:104B50006D4B1A6822F480321A601A6822F480229F
:104B60001A60E1E7684B1A6842F480221A601A68FA
:104B700042F480321A60D7E7FDF7EAFB0546624B44
:104B80001B6813F4003FA3D0FDF7E2FB401B642831
:104B9000F5D903204BE15C4B5B6813F4800FA6D181
:104BA000594B1B6813F0020F04D0E368012B01D0AE
:104BB00001203CE1544A136823F0F803216943EAD9
:104BC000C1031360236813F0080F46D0636983B3F1
:104BD0004D4A536F43F001035367FDF7B9FB054698
:104BE000494B5B6F13F0020F37D1FDF7B1FB401B50
:104BF0000228F5D903201AE1434A136823F0F80389
:104C0000216943EAC1031360DCE73F4A136823F0DC
:104C100001031360FDF79CFB05463B4B1B6813F03B
:104C2000020FCFD0FDF794FB401B0228F5D90320DB
:104C3000FDE0354A536F23F001035367FDF788FB0E
:104C40000546314B5B6F13F0020F06D0FDF780FB7A
:104C5000401B0228F5D90320E9E0236813F0040F74
:104C60007ED0294B1B6C13F0805F1ED1264B1A6C33
:104C700042F080521A641B6C03F080530193019B35
:104C80000125224B1B6813F4807F10D0A368012BF1
:104C900021D0002B3CD11C4B1A6F22F001021A6765
:104CA0001A6F22F004021A671AE00025E9E7174A92
:104CB000136843F480731360FDF74AFB0646134BF9
:104CC0001B6813F4807FE1D1FDF742FB801B642851
:104CD000F5D90320ABE00C4A136F43F001031367CF
:104CE000A3685BB3FDF734FB0646074B1B6F13F05D
:104CF000020F34D1FDF72CFB801B41F28833984220
:104D0000F3D9032093E000BF003802400070004058
:104D1000052B09D0484B1A6F22F001021A671A6F4F
:104D200022F004021A67DBE7434B1A6F42F00402D9
:104D30001A671A6F42F001021A67D1E7FDF708FB04
:104D400006463D4B1B6F13F0020F08D0FDF700FB2A
:104D5000801B41F288339842F3D9032067E0F5B90C
:104D6000A369002B62D0344A926802F00C02082A30
:104D70005FD0022B19D0304A136823F08073136080
:104D8000FDF7E6FA04462C4B1B6813F0007F47D072
:104D9000FDF7DEFA001B0228F5D9032047E0264A7A
:104DA000136C23F080531364DAE7234A136823F06B
:104DB00080731360FDF7CCFA05461F4B1B6813F098
:104DC000007F06D0FDF7C4FA401B0228F5D9032066
:104DD0002DE0E369226A1343626A43EA8213A26AFE
:104DE0005208013A43EA0243E26A43EA026343F0AB
:104DF0000053114A5360136843F080731360FDF74A
:104E0000A7FA04460C4B1B6813F0007F06D1FDF790
:104E10009FFA001B0228F5D9032008E0002006E0D5
:104E2000002004E001207047012000E0002002B0D3
:104E300070BD0120FBE700BF00380240264B9B6895
:104E400003F00C03042B44D0082B01D023487047F7
:104E50002DE9F04B204B5A6802F03F025B6813F4D7
:104E6000800F13D01C4B5968C1F3881100231C48D4
:104E7000A1FB0001FBF7CCF9174B5B68C3F30143BF
:104E800001335B00B0FBF3F0BDE8F08B124B5B68C5
:104E9000C3F388131E4600275C010025E41A65EB66
:104EA0000705A90141EA9461A001001B61EB05011E
:104EB000CB0043EA5073C400A01943EB07018B02F7
:104EC00043EA90538402204619460023FBF7A0F9D9
:104ED000D2E70348704700BF003802400024F400C6
:104EE00040787D01002800F0A28070B50446524B46
:104EF0001B6803F00F038B420CD24F4A136823F058
:104F00000F030B431360136803F00F038B4201D0B0
:104F1000012070BD236813F0020F17D013F0040FA7
:104F200004D0464A936843F4E0539360236813F037
:104F3000080F04D0414A936843F4604393603F4AAA
:104F4000936823F0F003A068034393600D46236841
:104F500013F0010F31D06368012B20D0022B25D034
:104F6000364A126812F0020F63D034498A6822F080
:104F7000030213438B60FDF7EBF906462F4B9B684A
:104F800003F00C036268B3EB820F16D0FDF7E0F973
:104F9000801B41F288339842F0D90320B9E7274AB1
:104FA000126812F4003FE0D10120B2E7234A1268F0
:104FB00012F0007FD9D10120ABE71F4B1B6803F033
:104FC0000F03AB420CD91C4A136823F00F032B4389
:104FD0001360136803F00F03AB4201D0012098E780
:104FE000236813F0040F06D0144A936823F4E053A7
:104FF000E1680B439360236813F0080F07D00F4A52
:10500000936823F46043216943EAC1039360FFF787
:1050100015FF0A4B9B68C3F30313094AD35CD840BE
:10502000084B18600020FDF7A1F8002071E701206F
:10503000704701206DE700BF003C0240003802408D
:10504000CCE90108E4010020014B1868704700BF5B
:10505000E401002008B5FFF7F7FF044B9B68C3F39A
:105060008223034AD35CD84008BD00BF0038024009
:10507000DCE9010808B5FFF7E7FF044B9B68C3F3C1
:105080004233034AD35CD84008BD00BF0038024019
:10509000DCE901080F2303600B4B9A6802F003025E
:1050A00042609A6802F0F00282609A6802F4E0526C
:1050B000C2609B68DB0803F4E0530361034B1B6889
:1050C00003F00F030B60704700380240003C0240C1
:1050D000F0B583B00446036813F0010F0CD0AF4B5A
:1050E0009A6822F400029A609A68416B0A439A60B7
:1050F000436BC3B1002600E00026236813F4002FA1
:1051000015D0A64AD2F88C3023F44013E16B0B4340
:10511000C2F88C30E36BB3F5801F06D0002B00F093
:105120001B81002504E00126E7E70126F6E70025BC
:10513000236813F4801F0FD0984AD2F88C3023F4E0
:105140004003216C0B43C2F88C30236CB3F5800F05
:1051500000F0048103B90125236813F0807F00D09B
:10516000012613F0200F40F0FB80236813F0100F8E
:105170000CD08A4BD3F88C2022F08072C3F88C209C
:10518000D3F88C20A16B0A43C3F88C20236813F456
:10519000804F08D0814AD2F8903023F44033616EBA
:1051A0000B43C2F89030236813F4004F08D07B4AB9
:1051B000D2F8903023F44023A16E0B43C2F8903014
:1051C000236813F4803F08D0744AD2F8903023F457
:1051D0004013E16E0B43C2F89030236813F4003F94
:1051E00008D06E4AD2F8903023F44003216F0B436D
:1051F000C2F89030236813F0400F08D0674AD2F805
:10520000903023F00303616C0B43C2F890302368A5
:1052100013F0800F08D0614AD2F8903023F00C03CD
:10522000A16C0B43C2F89030236813F4807F08D040
:105230005A4AD2F8903023F03003E16C0B43C2F8A5
:105240009030236813F4007F08D0544AD2F890308D
:1052500023F0C003216D0B43C2F89030236813F490
:10526000806F08D04D4AD2F8903023F44073616DBE
:105270000B43C2F89030236813F4006F08D0474AFC
:10528000D2F8903023F44063A16D0B43C2F8903004
:10529000236813F4805F08D0404AD2F8903023F49A
:1052A0004053E16D0B43C2F89030236813F4005F64
:1052B00008D03A4AD2F8903023F44043216E0B4391
:1052C000C2F89030236813F4800F08D0334AD2F824
:1052D000903023F08063A16F0B43C2F890302368B5
:1052E00013F4001F0DD02D4AD2F8903023F0006344
:1052F000E16F0B43C2F89030E36FB3F1006F00F041
:105300009980236813F0080F00D0012513F4802F33
:1053100008D0224AD2F8903023F04073616F0B43DB
:10532000C2F89030236813F4000F09D01B4AD2F85A
:10533000903023F08053D4F880100B43C2F89030A3
:10534000002E79D12368B3F1007F75D0002D40F095
:105350000681002003B0F0BD0125E9E60126F9E64B
:105360000E4B1A6C42F080521A641B6C03F080538F
:105370000193019B0A4A136843F480731360FCF79E
:10538000E7FF0746064B1B6813F4807F0AD1FCF742
:10539000DFFFC01B6428F5D90320DBE7003802409B
:1053A00000700040B34B1B6F13F4407315D0226B99
:1053B00002F440729A4210D0AE4B1A6F22F440723F
:1053C000196F41F480311967196F21F48031196721
:1053D0001A671B6F13F0010F12D1236B03F4407295
:1053E000B2F5407F1DD0A34A936823F4F81393606D
:1053F000A0490B6F226BC2F30B0213430B67B4E699
:10540000FCF7A6FF07469B4B1B6F13F0020FE4D17E
:10541000FCF79EFFC01B41F288339842F3D903206A
:1054200098E79448826822F4F812934919400A4395
:105430008260DDE7012564E78E4A136823F080630C
:105440001360FCF785FF06468A4B1B6813F0006F5C
:1054500006D0FCF77DFF801B6428F5D9032079E78F
:10546000236813F0010F13D0636B8BB9814AD2F814
:105470008430D2F88410606803F4403343EA801328
:1054800001F070610B43A16843EA0173C2F88430F4
:10549000236813F4002F03D0E26BB2F5801F06D00F
:1054A00013F4801F1ED0236CB3F5800F1AD1714AFC
:1054B000D2F88430D2F88410606803F4403343EAB1
:1054C0008013E06843EA006301F0E0410B43C2F857
:1054D0008430D2F88C3023F01F03616A01390B430A
:1054E000C2F88C30236813F0807F11D0614AD2F863
:1054F0008400D2F88410666823691B0443EA86138B
:1055000000F07060034301F0E0410B43C2F88430C7
:10551000236813F0007F0DD0626823691B0443EAFF
:105520008213E26843EA0263A26843EA0273514AC3
:10553000C2F884304F4A136843F080631360FCF76D
:1055400007FF06464B4B1B6813F0006F7FF4FEAE5F
:10555000FCF7FEFE801B6428F4D90320FAE6454AD6
:10556000136823F080531360FCF7F2FE0546414BAD
:105570001B6813F0005F06D0FCF7EAFE401B6428AE
:10558000F5D90320E6E6236813F4002F01D0E26B7F
:1055900022B113F4801F1DD0236CDBB9354AD2F839
:1055A0008830D2F88810606903F4403343EA8013EE
:1055B000A06943EA006301F0E0410B43C2F8883080
:1055C000D2F88C3023F4F853A16A013943EA01235D
:1055D000C2F88C30236813F4001F03D0E36FB3F1DB
:1055E000006F31D0236813F0080F19D0214AD2F888
:1055F0008810D2F88830606903F4403343EA80139E
:1056000001F070610B43E16943EA0173C2F888302D
:10561000D2F88C3023F44033E16A0B43C2F88C306B
:10562000144A136843F080531360FCF791FE04465C
:10563000104B1B6813F0005F19D1FCF789FE001BAB
:105640006428F5D9032085E60A4AD2F88800D2F802
:1056500088106569236A1B0443EA851300F07060B3
:10566000034301F0E0410B43C2F88830BAE7002061
:1056700070E600BF00380240FFFCFF0F10B4B0F529
:10568000002F07D00023B0F5801F65D018465DF8C5
:10569000044B7047614BD3F88C3003F44013B3F5DF
:1056A000801F2ED0B3F5001F54D00BB10023EAE7C2
:1056B0005A4B5B6813F4800F1BD1584B5A6802F0A9
:1056C0003F02574BB3FBF2F3544AD2F88810C1F3B0
:1056D0000361D2F88840C4F3881403FB04F3B3FBDE
:1056E000F1F3D2F88C20C2F304220132B3FBF2F3BF
:1056F000C9E74A4B5A6802F03F024A4BB3FBF2F348
:10570000E2E7464B5B6813F4800F1BD1434B5A68AA
:1057100002F03F02424BB3FBF2F3404AD2F884104E
:10572000C1F30361D2F88440C4F3881403FB04F38B
:10573000B3FBF1F3D2F88C2002F01F020132B3FB6D
:10574000F2F3A0E7354B5A6802F03F02354BB3FB4A
:10575000F2F3E2E7344B96E7304AD2F88C2002F4B9
:105760004002B2F5800F2DD0B2F5000F53D0002AC1
:105770008CD12A4B5B6813F4800F1BD1274B5A68DE
:1057800002F03F02264BB3FBF2F3244AD2F8880022
:10579000C0F30360D2F88810C1F3881103FB01F352
:1057A000B3FBF0F3D2F88C00C0F304200130B3FB5C
:1057B000F0F36BE7194B5A6802F03F02194BB3FB49
:1057C000F2F3E2E7154B5B6813F4800F1BD1134B28
:1057D0005A6802F03F02124BB3FBF2F30F4AD2F8C1
:1057E0008400C0F30360D2F88410C1F3881103FB76
:1057F00001F3B3FBF0F3D2F88C0000F01F0001308E
:10580000B3FBF0F342E7054B5A6802F03F02054B49
:10581000B3FBF2F3E2E7044B38E700BF0038024085
:105820000024F40040787D010080BB0038B50446B8
:105830000268D36823F0A003D360FCF789FD054616
:105840002368DB6813F0200F07D1FCF781FD401BB4
:10585000B0F57A7FF4D9032000E0002038BD38B5D8
:105860000368DA6812F0400F01D0002038BD04460A
:105870004FF0FF32DA60FCF76BFD05462368DB680A
:1058800013F0400F07D1FCF763FD401BB0F57A7FA2
:10589000F4D90320EAE70020E8E7000000284AD016
:1058A00038B50446437F002B3AD002236377236840
:1058B000CA225A62236853225A622046FFF7CFFF5A
:1058C0000246002830D1216888681C4B03408B6059
:1058D00020688168636825692B4365692B430B4306
:1058E00083602368E168196121680B69A06843EA55
:1058F00000430B612168CB6823F08003CB602168F3
:10590000CB6C23F00803CB642168CB6CA069034304
:10591000CB642368FF21596201236377104638BDA9
:105920000377FCF7C7F9C0E72368FF225A62042314
:1059300063770122F2E7012210467047BFFF8FFF15
:10594000002302E001330A38C0B20928FAD81B014B
:10595000DBB2184370470000F8B5037F012B76D007
:105960000D4604460123037702234377002A44D1DE
:1059700003689B6813F0400F01D100230B73287854
:10598000FFF7DEFF06046878FFF7DAFF46EA002635
:10599000A878FFF7D5FF0643287B46EA0046236830
:1059A000CA225A62236853225A622046FFF757FFE1
:1059B0000746002833D12268264B33401360226803
:1059C000936823F48023936021688B682A6968694F
:1059D000024313438B602268D36823F08003D360B3
:1059E00023689B6813F0200F23D02368FF225A629C
:1059F000012363770023237719E003689B6813F082
:105A0000400F01D100230B7328786E78360246EAE6
:105A10000046A8780643287B46EA0046BFE723688D
:105A2000FF225A6204236377002323770127384635
:105A3000F8BD2046FFF7FAFE0028D6D02368FF22E3
:105A40005A6204236377002323770127EFE70227B5
:105A5000EDE700BF7F7F7F0070B5037F012B64D02F
:105A600001230377022343773AB94B7813F0100FE1
:105A700003D003F0EF030A334B700E460446002AAE
:105A800030D1C878FFF75CFF05047078FFF758FF46
:105A900045EA0025B078FFF753FF0543307845EA23
:105AA00040352368CA225A62236853225A6220462C
:105AB000FFF7D5FE064600BB22681D4B2B40536006
:105AC0002268D36823F08003D36023689B6813F0B7
:105AD000200F1CD02368FF225A6201236377002322
